{
  "contractName": "JTAndTRALPTokenStakeRewardPool",
  "abi": [
    {
      "inputs": [
        {
          "internalType": "address",
          "name": "pairToken",
          "type": "address"
        },
        {
          "internalType": "address",
          "name": "TRAToken_",
          "type": "address"
        }
      ],
      "stateMutability": "nonpayable",
      "type": "constructor"
    },
    {
      "anonymous": false,
      "inputs": [
        {
          "indexed": true,
          "internalType": "address",
          "name": "previousOwner",
          "type": "address"
        },
        {
          "indexed": true,
          "internalType": "address",
          "name": "newOwner",
          "type": "address"
        }
      ],
      "name": "OwnershipTransferred",
      "type": "event"
    },
    {
      "anonymous": false,
      "inputs": [
        {
          "indexed": false,
          "internalType": "uint256",
          "name": "reward",
          "type": "uint256"
        }
      ],
      "name": "RewardAdded",
      "type": "event"
    },
    {
      "anonymous": false,
      "inputs": [
        {
          "indexed": true,
          "internalType": "address",
          "name": "user",
          "type": "address"
        },
        {
          "indexed": false,
          "internalType": "uint256",
          "name": "reward",
          "type": "uint256"
        }
      ],
      "name": "RewardPaid",
      "type": "event"
    },
    {
      "anonymous": false,
      "inputs": [
        {
          "indexed": false,
          "internalType": "bool",
          "name": "_open",
          "type": "bool"
        }
      ],
      "name": "SetOpen",
      "type": "event"
    },
    {
      "anonymous": false,
      "inputs": [
        {
          "indexed": true,
          "internalType": "address",
          "name": "user",
          "type": "address"
        },
        {
          "indexed": false,
          "internalType": "uint256",
          "name": "amount",
          "type": "uint256"
        }
      ],
      "name": "Staked",
      "type": "event"
    },
    {
      "anonymous": false,
      "inputs": [
        {
          "indexed": true,
          "internalType": "address",
          "name": "user",
          "type": "address"
        },
        {
          "indexed": false,
          "internalType": "uint256",
          "name": "amount",
          "type": "uint256"
        }
      ],
      "name": "Withdrawn",
      "type": "event"
    },
    {
      "inputs": [],
      "name": "DURATION",
      "outputs": [
        {
          "internalType": "uint256",
          "name": "",
          "type": "uint256"
        }
      ],
      "stateMutability": "view",
      "type": "function"
    },
    {
      "inputs": [],
      "name": "JTAndTRAV2PairToken",
      "outputs": [
        {
          "internalType": "contract IERC20",
          "name": "",
          "type": "address"
        }
      ],
      "stateMutability": "view",
      "type": "function"
    },
    {
      "inputs": [],
      "name": "TRAToken",
      "outputs": [
        {
          "internalType": "contract SkyrimToken",
          "name": "",
          "type": "address"
        }
      ],
      "stateMutability": "view",
      "type": "function"
    },
    {
      "inputs": [
        {
          "internalType": "address",
          "name": "account",
          "type": "address"
        }
      ],
      "name": "balanceOf",
      "outputs": [
        {
          "internalType": "uint256",
          "name": "",
          "type": "uint256"
        }
      ],
      "stateMutability": "view",
      "type": "function"
    },
    {
      "inputs": [],
      "name": "lastUpdateTime",
      "outputs": [
        {
          "internalType": "uint256",
          "name": "",
          "type": "uint256"
        }
      ],
      "stateMutability": "view",
      "type": "function"
    },
    {
      "inputs": [],
      "name": "owner",
      "outputs": [
        {
          "internalType": "address",
          "name": "",
          "type": "address"
        }
      ],
      "stateMutability": "view",
      "type": "function"
    },
    {
      "inputs": [],
      "name": "periodFinish",
      "outputs": [
        {
          "internalType": "uint256",
          "name": "",
          "type": "uint256"
        }
      ],
      "stateMutability": "view",
      "type": "function"
    },
    {
      "inputs": [],
      "name": "renounceOwnership",
      "outputs": [],
      "stateMutability": "nonpayable",
      "type": "function"
    },
    {
      "inputs": [],
      "name": "rewardPerTokenStored",
      "outputs": [
        {
          "internalType": "uint256",
          "name": "",
          "type": "uint256"
        }
      ],
      "stateMutability": "view",
      "type": "function"
    },
    {
      "inputs": [],
      "name": "rewardRate",
      "outputs": [
        {
          "internalType": "uint256",
          "name": "",
          "type": "uint256"
        }
      ],
      "stateMutability": "view",
      "type": "function"
    },
    {
      "inputs": [
        {
          "internalType": "address",
          "name": "",
          "type": "address"
        }
      ],
      "name": "rewards",
      "outputs": [
        {
          "internalType": "uint256",
          "name": "",
          "type": "uint256"
        }
      ],
      "stateMutability": "view",
      "type": "function"
    },
    {
      "inputs": [
        {
          "internalType": "address",
          "name": "_rewardDistribution",
          "type": "address"
        }
      ],
      "name": "setRewardDistributionManager",
      "outputs": [],
      "stateMutability": "nonpayable",
      "type": "function"
    },
    {
      "inputs": [],
      "name": "startTime",
      "outputs": [
        {
          "internalType": "uint256",
          "name": "",
          "type": "uint256"
        }
      ],
      "stateMutability": "view",
      "type": "function"
    },
    {
      "inputs": [],
      "name": "totalSupply",
      "outputs": [
        {
          "internalType": "uint256",
          "name": "",
          "type": "uint256"
        }
      ],
      "stateMutability": "view",
      "type": "function"
    },
    {
      "inputs": [
        {
          "internalType": "address",
          "name": "newOwner",
          "type": "address"
        }
      ],
      "name": "transferOwnership",
      "outputs": [],
      "stateMutability": "nonpayable",
      "type": "function"
    },
    {
      "inputs": [
        {
          "internalType": "address",
          "name": "",
          "type": "address"
        }
      ],
      "name": "userRewardPerTokenPaid",
      "outputs": [
        {
          "internalType": "uint256",
          "name": "",
          "type": "uint256"
        }
      ],
      "stateMutability": "view",
      "type": "function"
    },
    {
      "inputs": [],
      "name": "lastTimeRewardApplicable",
      "outputs": [
        {
          "internalType": "uint256",
          "name": "",
          "type": "uint256"
        }
      ],
      "stateMutability": "view",
      "type": "function"
    },
    {
      "inputs": [],
      "name": "rewardPerToken",
      "outputs": [
        {
          "internalType": "uint256",
          "name": "",
          "type": "uint256"
        }
      ],
      "stateMutability": "view",
      "type": "function"
    },
    {
      "inputs": [
        {
          "internalType": "address",
          "name": "account",
          "type": "address"
        }
      ],
      "name": "earned",
      "outputs": [
        {
          "internalType": "uint256",
          "name": "",
          "type": "uint256"
        }
      ],
      "stateMutability": "view",
      "type": "function"
    },
    {
      "inputs": [
        {
          "internalType": "uint256",
          "name": "amount",
          "type": "uint256"
        }
      ],
      "name": "stake",
      "outputs": [],
      "stateMutability": "nonpayable",
      "type": "function"
    },
    {
      "inputs": [
        {
          "internalType": "uint256",
          "name": "amount",
          "type": "uint256"
        }
      ],
      "name": "withdraw",
      "outputs": [],
      "stateMutability": "nonpayable",
      "type": "function"
    },
    {
      "inputs": [],
      "name": "exit",
      "outputs": [],
      "stateMutability": "nonpayable",
      "type": "function"
    },
    {
      "inputs": [],
      "name": "getReward",
      "outputs": [],
      "stateMutability": "nonpayable",
      "type": "function"
    },
    {
      "inputs": [],
      "name": "getPeriodFinish",
      "outputs": [
        {
          "internalType": "uint256",
          "name": "",
          "type": "uint256"
        }
      ],
      "stateMutability": "view",
      "type": "function"
    },
    {
      "inputs": [],
      "name": "isOpen",
      "outputs": [
        {
          "internalType": "bool",
          "name": "",
          "type": "bool"
        }
      ],
      "stateMutability": "view",
      "type": "function"
    },
    {
      "inputs": [
        {
          "internalType": "bool",
          "name": "_open",
          "type": "bool"
        }
      ],
      "name": "setOpen",
      "outputs": [],
      "stateMutability": "nonpayable",
      "type": "function"
    },
    {
      "inputs": [
        {
          "internalType": "uint256",
          "name": "reward",
          "type": "uint256"
        }
      ],
      "name": "notifyRewardAmount",
      "outputs": [],
      "stateMutability": "nonpayable",
      "type": "function"
    }
  ],
  "bytecode": "0x60806040526000600655600060075560006009556001600a60006101000a81548160ff02191690831515021790555034801561003a57600080fd5b50604051620028e7380380620028e78339818101604052604081101561005f57600080fd5b81019080805190602001909291908051906020019092919050505081806000806101000a81548173ffffffffffffffffffffffffffffffffffffffff021916908373ffffffffffffffffffffffffffffffffffffffff1602179055505060006100cc6101b360201b60201c565b905080600360006101000a81548173ffffffffffffffffffffffffffffffffffffffff021916908373ffffffffffffffffffffffffffffffffffffffff1602179055508073ffffffffffffffffffffffffffffffffffffffff16600073ffffffffffffffffffffffffffffffffffffffff167f8be0079c531659141344cd1fd0a4f28419497f9722a3daafe3b4186f6b6457e060405160405180910390a35080600560006101000a81548173ffffffffffffffffffffffffffffffffffffffff021916908373ffffffffffffffffffffffffffffffffffffffff16021790555050506101bb565b600033905090565b61271c80620001cb6000396000f3fe608060405234801561001057600080fd5b50600436106101a85760003560e01c806378e97925116100f9578063cb17d14f11610097578063df136d6511610071578063df136d65146105cb578063e9fad8ee146105e9578063ebe2b12b146105f3578063f2fde38b14610611576101a8565b8063cb17d14f1461055b578063cd3daf9d14610579578063daf2288e14610597576101a8565b80638b876347116100d35780638b876347146104835780638da5cb5b146104db578063a694fc3a1461050f578063c8f33c911461053d576101a8565b806378e97925146104295780637b0a47ee1461044757806380faa57d14610465576101a8565b80633c6b16ab1161016657806360dcfba21161014057806360dcfba2146103635780636fdca5e01461039757806370a08231146103c7578063715018a61461041f576101a8565b80633c6b16ab1461030b5780633d18b9121461033957806347535d7b14610343576101a8565b80628cc262146101ad57806305dfdbc4146102055780630700037d1461024957806318160ddd146102a15780631be05289146102bf5780632e1a7d4d146102dd575b600080fd5b6101ef600480360360208110156101c357600080fd5b81019080803573ffffffffffffffffffffffffffffffffffffffff169060200190929190505050610655565b6040518082815260200191505060405180910390f35b6102476004803603602081101561021b57600080fd5b81019080803573ffffffffffffffffffffffffffffffffffffffff16906020019092919050505061073c565b005b61028b6004803603602081101561025f57600080fd5b81019080803573ffffffffffffffffffffffffffffffffffffffff16906020019092919050505061082f565b6040518082815260200191505060405180910390f35b6102a9610847565b6040518082815260200191505060405180910390f35b6102c7610851565b6040518082815260200191505060405180910390f35b610309600480360360208110156102f357600080fd5b8101908080359060200190929190505050610857565b005b6103376004803603602081101561032157600080fd5b8101908080359060200190929190505050610a68565b005b610341610f96565b005b61034b6111ee565b60405180821515815260200191505060405180910390f35b61036b611205565b604051808273ffffffffffffffffffffffffffffffffffffffff16815260200191505060405180910390f35b6103c5600480360360208110156103ad57600080fd5b8101908080351515906020019092919050505061122b565b005b610409600480360360208110156103dd57600080fd5b81019080803573ffffffffffffffffffffffffffffffffffffffff169060200190929190505050611330565b6040518082815260200191505060405180910390f35b610427611379565b005b6104316114e9565b6040518082815260200191505060405180910390f35b61044f6114f1565b6040518082815260200191505060405180910390f35b61046d6114f7565b6040518082815260200191505060405180910390f35b6104c56004803603602081101561049957600080fd5b81019080803573ffffffffffffffffffffffffffffffffffffffff169060200190929190505050611513565b6040518082815260200191505060405180910390f35b6104e361152b565b604051808273ffffffffffffffffffffffffffffffffffffffff16815260200191505060405180910390f35b61053b6004803603602081101561052557600080fd5b8101908080359060200190929190505050611555565b005b6105456117cb565b6040518082815260200191505060405180910390f35b6105636117d1565b6040518082815260200191505060405180910390f35b6105816117db565b6040518082815260200191505060405180910390f35b61059f611873565b604051808273ffffffffffffffffffffffffffffffffffffffff16815260200191505060405180910390f35b6105d3611897565b6040518082815260200191505060405180910390f35b6105f161189d565b005b6105fb6118b8565b6040518082815260200191505060405180910390f35b6106536004803603602081101561062757600080fd5b81019080803573ffffffffffffffffffffffffffffffffffffffff1690602001909291905050506118be565b005b6000610735600c60008473ffffffffffffffffffffffffffffffffffffffff1673ffffffffffffffffffffffffffffffffffffffff16815260200190815260200160002054610727670de0b6b3a7640000610719610702600b60008973ffffffffffffffffffffffffffffffffffffffff1673ffffffffffffffffffffffffffffffffffffffff168152602001908152602001600020546106f46117db565b611ab390919063ffffffff16565b61070b88611330565b611b3690919063ffffffff16565b611bbc90919063ffffffff16565b611c4590919063ffffffff16565b9050919050565b610744611ccd565b73ffffffffffffffffffffffffffffffffffffffff1661076261152b565b73ffffffffffffffffffffffffffffffffffffffff16146107eb576040517f08c379a00000000000000000000000000000000000000000000000000000000081526004018080602001828103825260208152602001807f4f776e61626c653a2063616c6c6572206973206e6f7420746865206f776e657281525060200191505060405180910390fd5b80600460006101000a81548173ffffffffffffffffffffffffffffffffffffffff021916908373ffffffffffffffffffffffffffffffffffffffff16021790555050565b600c6020528060005260406000206000915090505481565b6000600154905090565b61a8c081565b635f9c1c6042116108d0576040517f08c379a000000000000000000000000000000000000000000000000000000000815260040180806020018281038252601d8152602001807f4a54416e64545241563250616972506f6f6c3a204e6f7420737461727400000081525060200191505060405180910390fd5b336108d96117db565b6009819055506108e76114f7565b600881905550600073ffffffffffffffffffffffffffffffffffffffff168173ffffffffffffffffffffffffffffffffffffffff16146109b45761092a81610655565b600c60008373ffffffffffffffffffffffffffffffffffffffff1673ffffffffffffffffffffffffffffffffffffffff16815260200190815260200160002081905550600954600b60008373ffffffffffffffffffffffffffffffffffffffff1673ffffffffffffffffffffffffffffffffffffffff168152602001908152602001600020819055505b60008211610a0d576040517f08c379a00000000000000000000000000000000000000000000000000000000081526004018080602001828103825260258152602001806125e46025913960400191505060405180910390fd5b610a1682611cd5565b3373ffffffffffffffffffffffffffffffffffffffff167f7084f5476618d8e60b11ef0d7d3f06914655adb8793e28ff7f018d4c76d505d5836040518082815260200191505060405180910390a25050565b600460009054906101000a900473ffffffffffffffffffffffffffffffffffffffff1673ffffffffffffffffffffffffffffffffffffffff16610aa9611ccd565b73ffffffffffffffffffffffffffffffffffffffff1614610b15576040517f08c379a00000000000000000000000000000000000000000000000000000000081526004018080602001828103825260298152602001806126516029913960400191505060405180910390fd5b600a60009054906101000a900460ff16610b7a576040517f08c379a00000000000000000000000000000000000000000000000000000000081526004018080602001828103825260228152602001806126096022913960400191505060405180910390fd5b6000610b846117db565b600981905550610b926114f7565b600881905550600073ffffffffffffffffffffffffffffffffffffffff168173ffffffffffffffffffffffffffffffffffffffff1614610c5f57610bd581610655565b600c60008373ffffffffffffffffffffffffffffffffffffffff1673ffffffffffffffffffffffffffffffffffffffff16815260200190815260200160002081905550600954600b60008373ffffffffffffffffffffffffffffffffffffffff1673ffffffffffffffffffffffffffffffffffffffff168152602001908152602001600020819055505b635f9c1c60421115610d86576006544210610d1a576000610cb46001610ca661a8c0610c98635f9c1c6042611ab390919063ffffffff16565b611bbc90919063ffffffff16565b611c4590919063ffffffff16565b9050610ce1610cce61a8c083611b3690919063ffffffff16565b635f9c1c60611c4590919063ffffffff16565b600681905550610d0e610cff42600654611ab390919063ffffffff16565b84611bbc90919063ffffffff16565b60078190555050610d7a565b6000610d3142600654611ab390919063ffffffff16565b90506000610d4a60075483611b3690919063ffffffff16565b9050610d7182610d638387611c4590919063ffffffff16565b611bbc90919063ffffffff16565b60078190555050505b42600881905550610ea7565b6000600560009054906101000a900473ffffffffffffffffffffffffffffffffffffffff1673ffffffffffffffffffffffffffffffffffffffff166370a08231306040518263ffffffff1660e01b8152600401808273ffffffffffffffffffffffffffffffffffffffff16815260200191505060206040518083038186803b158015610e1157600080fd5b505afa158015610e25573d6000803e3d6000fd5b505050506040513d6020811015610e3b57600080fd5b81019080805190602001909291905050509050610e7561a8c0610e678386611c4590919063ffffffff16565b611bbc90919063ffffffff16565b600781905550610e9461a8c0635f9c1c60611c4590919063ffffffff16565b600681905550635f9c1c60600881905550505b600560009054906101000a900473ffffffffffffffffffffffffffffffffffffffff1673ffffffffffffffffffffffffffffffffffffffff166340c10f1930846040518363ffffffff1660e01b8152600401808373ffffffffffffffffffffffffffffffffffffffff16815260200182815260200192505050600060405180830381600087803b158015610f3a57600080fd5b505af1158015610f4e573d6000803e3d6000fd5b505050507fde88a922e0d3b88b24e9623efeb464919c6bf9f66857a65e2bfcf2ce87a9433d826040518082815260200191505060405180910390a1610f91611dd3565b505050565b635f9c1c60421161100f576040517f08c379a000000000000000000000000000000000000000000000000000000000815260040180806020018281038252601d8152602001807f4a54416e64545241563250616972506f6f6c3a204e6f7420737461727400000081525060200191505060405180910390fd5b336110186117db565b6009819055506110266114f7565b600881905550600073ffffffffffffffffffffffffffffffffffffffff168173ffffffffffffffffffffffffffffffffffffffff16146110f35761106981610655565b600c60008373ffffffffffffffffffffffffffffffffffffffff1673ffffffffffffffffffffffffffffffffffffffff16815260200190815260200160002081905550600954600b60008373ffffffffffffffffffffffffffffffffffffffff1673ffffffffffffffffffffffffffffffffffffffff168152602001908152602001600020819055505b60006110fe33610655565b905060008111156111ea576000600c60003373ffffffffffffffffffffffffffffffffffffffff1673ffffffffffffffffffffffffffffffffffffffff1681526020019081526020016000208190555061119b3382600560009054906101000a900473ffffffffffffffffffffffffffffffffffffffff1673ffffffffffffffffffffffffffffffffffffffff16611e0b9092919063ffffffff16565b3373ffffffffffffffffffffffffffffffffffffffff167fe2403640ba68fed3a2f88b7557551d1993f84b99bb10ff833f0cf8db0c5e0486826040518082815260200191505060405180910390a25b5050565b6000600a60009054906101000a900460ff16905090565b600560009054906101000a900473ffffffffffffffffffffffffffffffffffffffff1681565b611233611ccd565b73ffffffffffffffffffffffffffffffffffffffff1661125161152b565b73ffffffffffffffffffffffffffffffffffffffff16146112da576040517f08c379a00000000000000000000000000000000000000000000000000000000081526004018080602001828103825260208152602001807f4f776e61626c653a2063616c6c6572206973206e6f7420746865206f776e657281525060200191505060405180910390fd5b80600a60006101000a81548160ff0219169083151502179055507f294847065aeb5e8e788661acfc7dbcb26c7f0454406268fce96109d7136928af8160405180821515815260200191505060405180910390a150565b6000600260008373ffffffffffffffffffffffffffffffffffffffff1673ffffffffffffffffffffffffffffffffffffffff168152602001908152602001600020549050919050565b611381611ccd565b73ffffffffffffffffffffffffffffffffffffffff1661139f61152b565b73ffffffffffffffffffffffffffffffffffffffff1614611428576040517f08c379a00000000000000000000000000000000000000000000000000000000081526004018080602001828103825260208152602001807f4f776e61626c653a2063616c6c6572206973206e6f7420746865206f776e657281525060200191505060405180910390fd5b600073ffffffffffffffffffffffffffffffffffffffff16600360009054906101000a900473ffffffffffffffffffffffffffffffffffffffff1673ffffffffffffffffffffffffffffffffffffffff167f8be0079c531659141344cd1fd0a4f28419497f9722a3daafe3b4186f6b6457e060405160405180910390a36000600360006101000a81548173ffffffffffffffffffffffffffffffffffffffff021916908373ffffffffffffffffffffffffffffffffffffffff160217905550565b635f9c1c6081565b60075481565b600061150e42600654611ead90919063ffffffff16565b905090565b600b6020528060005260406000206000915090505481565b6000600360009054906101000a900473ffffffffffffffffffffffffffffffffffffffff16905090565b600a60009054906101000a900460ff166115ba576040517f08c379a00000000000000000000000000000000000000000000000000000000081526004018080602001828103825260228152602001806126096022913960400191505060405180910390fd5b635f9c1c604211611633576040517f08c379a000000000000000000000000000000000000000000000000000000000815260040180806020018281038252601d8152602001807f4a54416e64545241563250616972506f6f6c3a204e6f7420737461727400000081525060200191505060405180910390fd5b3361163c6117db565b60098190555061164a6114f7565b600881905550600073ffffffffffffffffffffffffffffffffffffffff168173ffffffffffffffffffffffffffffffffffffffff16146117175761168d81610655565b600c60008373ffffffffffffffffffffffffffffffffffffffff1673ffffffffffffffffffffffffffffffffffffffff16815260200190815260200160002081905550600954600b60008373ffffffffffffffffffffffffffffffffffffffff1673ffffffffffffffffffffffffffffffffffffffff168152602001908152602001600020819055505b60008211611770576040517f08c379a000000000000000000000000000000000000000000000000000000000815260040180806020018281038252602281526020018061267a6022913960400191505060405180910390fd5b61177982611ec6565b3373ffffffffffffffffffffffffffffffffffffffff167f9e71bc8eea02a63969f509818f2dafb9254532904319f9dbda79b67bd34a5f3d836040518082815260200191505060405180910390a25050565b60085481565b6000600654905090565b6000806117e6610847565b14156117f6576009549050611870565b61186d61185c611804610847565b61184e670de0b6b3a76400006118406007546118326008546118246114f7565b611ab390919063ffffffff16565b611b3690919063ffffffff16565b611b3690919063ffffffff16565b611bbc90919063ffffffff16565b600954611c4590919063ffffffff16565b90505b90565b60008054906101000a900473ffffffffffffffffffffffffffffffffffffffff1681565b60095481565b6118ae6118a933611330565b610857565b6118b6610f96565b565b60065481565b6118c6611ccd565b73ffffffffffffffffffffffffffffffffffffffff166118e461152b565b73ffffffffffffffffffffffffffffffffffffffff161461196d576040517f08c379a00000000000000000000000000000000000000000000000000000000081526004018080602001828103825260208152602001807f4f776e61626c653a2063616c6c6572206973206e6f7420746865206f776e657281525060200191505060405180910390fd5b600073ffffffffffffffffffffffffffffffffffffffff168173ffffffffffffffffffffffffffffffffffffffff1614156119f3576040517f08c379a00000000000000000000000000000000000000000000000000000000081526004018080602001828103825260268152602001806125be6026913960400191505060405180910390fd5b8073ffffffffffffffffffffffffffffffffffffffff16600360009054906101000a900473ffffffffffffffffffffffffffffffffffffffff1673ffffffffffffffffffffffffffffffffffffffff167f8be0079c531659141344cd1fd0a4f28419497f9722a3daafe3b4186f6b6457e060405160405180910390a380600360006101000a81548173ffffffffffffffffffffffffffffffffffffffff021916908373ffffffffffffffffffffffffffffffffffffffff16021790555050565b600082821115611b2b576040517f08c379a000000000000000000000000000000000000000000000000000000000815260040180806020018281038252601e8152602001807f536166654d6174683a207375627472616374696f6e206f766572666c6f77000081525060200191505060405180910390fd5b818303905092915050565b600080831415611b495760009050611bb6565b6000828402905082848281611b5a57fe5b0414611bb1576040517f08c379a000000000000000000000000000000000000000000000000000000000815260040180806020018281038252602181526020018061269c6021913960400191505060405180910390fd5b809150505b92915050565b6000808211611c33576040517f08c379a000000000000000000000000000000000000000000000000000000000815260040180806020018281038252601a8152602001807f536166654d6174683a206469766973696f6e206279207a65726f00000000000081525060200191505060405180910390fd5b818381611c3c57fe5b04905092915050565b600080828401905083811015611cc3576040517f08c379a000000000000000000000000000000000000000000000000000000000815260040180806020018281038252601b8152602001807f536166654d6174683a206164646974696f6e206f766572666c6f77000000000081525060200191505060405180910390fd5b8091505092915050565b600033905090565b611cea81600154611ab390919063ffffffff16565b600181905550611d4281600260003373ffffffffffffffffffffffffffffffffffffffff1673ffffffffffffffffffffffffffffffffffffffff16815260200190815260200160002054611ab390919063ffffffff16565b600260003373ffffffffffffffffffffffffffffffffffffffff1673ffffffffffffffffffffffffffffffffffffffff16815260200190815260200160002081905550611dd0338260008054906101000a900473ffffffffffffffffffffffffffffffffffffffff1673ffffffffffffffffffffffffffffffffffffffff16611e0b9092919063ffffffff16565b50565b6000611e06670de0b6b3a7640000611df860075461a8c0611b3690919063ffffffff16565b611b3690919063ffffffff16565b905090565b611ea88363a9059cbb60e01b8484604051602401808373ffffffffffffffffffffffffffffffffffffffff16815260200182815260200192505050604051602081830303815290604052907bffffffffffffffffffffffffffffffffffffffffffffffffffffffff19166020820180517bffffffffffffffffffffffffffffffffffffffffffffffffffffffff838183161783525050505061216e565b505050565b6000818310611ebc5781611ebe565b825b905092915050565b60008060009054906101000a900473ffffffffffffffffffffffffffffffffffffffff1673ffffffffffffffffffffffffffffffffffffffff166370a08231306040518263ffffffff1660e01b8152600401808273ffffffffffffffffffffffffffffffffffffffff16815260200191505060206040518083038186803b158015611f5057600080fd5b505afa158015611f64573d6000803e3d6000fd5b505050506040513d6020811015611f7a57600080fd5b81019080805190602001909291905050509050611fda33308460008054906101000a900473ffffffffffffffffffffffffffffffffffffffff1673ffffffffffffffffffffffffffffffffffffffff1661225d909392919063ffffffff16565b60008060009054906101000a900473ffffffffffffffffffffffffffffffffffffffff1673ffffffffffffffffffffffffffffffffffffffff166370a08231306040518263ffffffff1660e01b8152600401808273ffffffffffffffffffffffffffffffffffffffff16815260200191505060206040518083038186803b15801561206457600080fd5b505afa158015612078573d6000803e3d6000fd5b505050506040513d602081101561208e57600080fd5b8101908080519060200190929190505050905060006120b68383611ab390919063ffffffff16565b90506120cd81600154611c4590919063ffffffff16565b60018190555061212581600260003373ffffffffffffffffffffffffffffffffffffffff1673ffffffffffffffffffffffffffffffffffffffff16815260200190815260200160002054611c4590919063ffffffff16565b600260003373ffffffffffffffffffffffffffffffffffffffff1673ffffffffffffffffffffffffffffffffffffffff1681526020019081526020016000208190555050505050565b60006121d0826040518060400160405280602081526020017f5361666545524332303a206c6f772d6c6576656c2063616c6c206661696c65648152508573ffffffffffffffffffffffffffffffffffffffff1661231e9092919063ffffffff16565b9050600081511115612258578080602001905160208110156121f157600080fd5b8101908080519060200190929190505050612257576040517f08c379a000000000000000000000000000000000000000000000000000000000815260040180806020018281038252602a8152602001806126bd602a913960400191505060405180910390fd5b5b505050565b612318846323b872dd60e01b858585604051602401808473ffffffffffffffffffffffffffffffffffffffff1681526020018373ffffffffffffffffffffffffffffffffffffffff1681526020018281526020019350505050604051602081830303815290604052907bffffffffffffffffffffffffffffffffffffffffffffffffffffffff19166020820180517bffffffffffffffffffffffffffffffffffffffffffffffffffffffff838183161783525050505061216e565b50505050565b606061232d8484600085612336565b90509392505050565b606082471015612391576040517f08c379a000000000000000000000000000000000000000000000000000000000815260040180806020018281038252602681526020018061262b6026913960400191505060405180910390fd5b61239a856124de565b61240c576040517f08c379a000000000000000000000000000000000000000000000000000000000815260040180806020018281038252601d8152602001807f416464726573733a2063616c6c20746f206e6f6e2d636f6e747261637400000081525060200191505060405180910390fd5b6000808673ffffffffffffffffffffffffffffffffffffffff1685876040518082805190602001908083835b6020831061245b5780518252602082019150602081019050602083039250612438565b6001836020036101000a03801982511681845116808217855250505050505090500191505060006040518083038185875af1925050503d80600081146124bd576040519150601f19603f3d011682016040523d82523d6000602084013e6124c2565b606091505b50915091506124d28282866124f1565b92505050949350505050565b600080823b905060008111915050919050565b60608315612501578290506125b6565b6000835111156125145782518084602001fd5b816040517f08c379a00000000000000000000000000000000000000000000000000000000081526004018080602001828103825283818151815260200191508051906020019080838360005b8381101561257b578082015181840152602081019050612560565b50505050905090810190601f1680156125a85780820380516001836020036101000a031916815260200191505b509250505060405180910390fd5b939250505056fe4f776e61626c653a206e6577206f776e657220697320746865207a65726f20616464726573734a54416e64545241563250616972506f6f6c3a2043616e6e6f7420776974686472617720304a54416e64545241563250616972506f6f6c3a20506f6f6c20697320636c6f736564416464726573733a20696e73756666696369656e742062616c616e636520666f722063616c6c43616c6c6572206973206e6f742072657761726420646973747269627574696f6e206d616e616765724a54416e64545241563250616972506f6f6c3a2043616e6e6f74207374616b652030536166654d6174683a206d756c7469706c69636174696f6e206f766572666c6f775361666545524332303a204552433230206f7065726174696f6e20646964206e6f742073756363656564a2646970667358221220f1a9665a3d392f3af7117aaac232c031f6eb9e92806ddeb1b15e8cee63dce07564736f6c63430007060033",
  "immutableReferences": {},
  "source": "// SPDX-License-Identifier: MIT\n\npragma solidity >=0.7.0 <0.8.0;\n\nimport \"@openzeppelin/contracts/token/ERC20/SafeERC20.sol\";\nimport \"@openzeppelin/contracts/math/SafeMath.sol\";\nimport \"@openzeppelin/contracts/access/Ownable.sol\";\nimport \"@openzeppelin/contracts/math/Math.sol\";\nimport \"./RewardDistributionManager.sol\";\nimport \"./SkyrimToken.sol\";\n\n\ncontract JTAndTRAV2PairTokenWrapper {\n    using SafeMath for uint256;\n    using SafeERC20 for IERC20;\n\n    IERC20 public JTAndTRAV2PairToken;\n    \n    uint256 private _totalSupply;\n    mapping(address => uint256) private _balances;\n\n    constructor (address pairTokenAddress) {\n        JTAndTRAV2PairToken = IERC20(pairTokenAddress);\n    }\n    \n    function totalSupply() public view returns (uint256) {\n        return _totalSupply;\n    }\n\n    function balanceOf(address account) public view returns (uint256) {\n        return _balances[account];\n    }\n\n    function stake(uint256 amount) virtual public {\n        uint256 _before = JTAndTRAV2PairToken.balanceOf(address(this));\n        JTAndTRAV2PairToken.safeTransferFrom(msg.sender, address(this), amount);\n        uint256 _after = JTAndTRAV2PairToken.balanceOf(address(this));\n        uint256 _amount = _after.sub(_before);\n        \n        _totalSupply = _totalSupply.add(_amount);\n        _balances[msg.sender] = _balances[msg.sender].add(_amount);\n    }\n\n    function withdraw(uint256 amount) virtual public {\n        _totalSupply = _totalSupply.sub(amount);\n        _balances[msg.sender] = _balances[msg.sender].sub(amount);\n        JTAndTRAV2PairToken.safeTransfer(msg.sender, amount);\n    }\n}\n\ncontract JTAndTRALPTokenStakeRewardPool is JTAndTRAV2PairTokenWrapper, RewardDistributionManager {\n    using SafeMath for uint256;\n    using SafeERC20 for IERC20;\n    using Math for uint256;\n    using SafeERC20 for SkyrimToken;\n\n    SkyrimToken public TRAToken;\n    uint256 public constant DURATION = 12 hours;\n\n    uint256 public constant startTime = 1604066400; \n    uint256 public periodFinish = 0;\n    uint256 public rewardRate = 0;\n    uint256 public lastUpdateTime;\n    uint256 public rewardPerTokenStored = 0;\n    bool private open = true;\n    uint256 private constant _gunit = 1e18;\n    mapping(address => uint256) public userRewardPerTokenPaid; \n    mapping(address => uint256) public rewards; \n\n    event RewardAdded(uint256 reward);\n    event Staked(address indexed user, uint256 amount);\n    event Withdrawn(address indexed user, uint256 amount);\n    event RewardPaid(address indexed user, uint256 reward);\n    event SetOpen(bool _open);\n\n    modifier updateReward(address account) {\n        rewardPerTokenStored = rewardPerToken();\n        lastUpdateTime = lastTimeRewardApplicable();\n        if (account != address(0)) {\n            rewards[account] = earned(account);\n            userRewardPerTokenPaid[account] = rewardPerTokenStored;\n        }\n        _;\n    }\n\n    constructor(address pairToken, address TRAToken_) JTAndTRAV2PairTokenWrapper(pairToken) {\n        TRAToken = SkyrimToken(TRAToken_);\n    }\n\n    function lastTimeRewardApplicable() public view returns (uint256) {\n        return periodFinish.min(block.timestamp);\n    }\n\n    function rewardPerToken() public view returns (uint256) {\n        if (totalSupply() == 0) {\n            return rewardPerTokenStored;\n        }\n        return\n            rewardPerTokenStored.add(\n                lastTimeRewardApplicable()\n                    .sub(lastUpdateTime)\n                    .mul(rewardRate)\n                    .mul(_gunit)\n                    .div(totalSupply())\n            );\n    }\n\n    function earned(address account) public view returns (uint256) {\n        return\n            balanceOf(account)\n                .mul(rewardPerToken().sub(userRewardPerTokenPaid[account]))\n                .div(_gunit)\n                .add(rewards[account]);\n    }\n\n    function stake(uint256 amount) override public checkOpen checkStart updateReward(msg.sender){ \n        require(amount > 0, \"JTAndTRAV2PairPool: Cannot stake 0\");\n        super.stake(amount);\n        emit Staked(msg.sender, amount);\n    }\n\n    function withdraw(uint256 amount) override public checkStart updateReward(msg.sender){\n        require(amount > 0, \"JTAndTRAV2PairPool: Cannot withdraw 0\");\n        super.withdraw(amount);\n        emit Withdrawn(msg.sender, amount);\n    }\n\n    function exit() external {\n        withdraw(balanceOf(msg.sender));\n        getReward();\n    }\n\n    function getReward() public checkStart updateReward(msg.sender){\n        uint256 reward = earned(msg.sender);\n        if (reward > 0) {\n            rewards[msg.sender] = 0;\n            TRAToken.safeTransfer(msg.sender, reward);\n            emit RewardPaid(msg.sender, reward);\n        }\n    }\n\n    modifier checkStart() {\n        require(block.timestamp > startTime,\"JTAndTRAV2PairPool: Not start\");\n        _;\n    }\n\n    modifier checkOpen() {\n        require(open, \"JTAndTRAV2PairPool: Pool is closed\");\n        _;\n    }\n\n    function getPeriodFinish() external view returns (uint256) {\n        return periodFinish;\n    }\n\n    function isOpen() external view returns (bool) {\n        return open;\n    }\n\n    function setOpen(bool _open) external onlyOwner {\n        open = _open;\n        emit SetOpen(_open);\n    }\n\n    function notifyRewardAmount(uint256 reward)\n        external\n        onlyRewardDistributionManager\n        checkOpen\n        updateReward(address(0)){\n        if (block.timestamp > startTime){\n            if (block.timestamp >= periodFinish) {\n                uint256 period = block.timestamp.sub(startTime).div(DURATION).add(1);\n                periodFinish = startTime.add(period.mul(DURATION));\n                rewardRate = reward.div(periodFinish.sub(block.timestamp));\n            } else {\n                uint256 remaining = periodFinish.sub(block.timestamp);\n                uint256 leftover = remaining.mul(rewardRate);\n                rewardRate = reward.add(leftover).div(remaining);\n            }\n            lastUpdateTime = block.timestamp;\n        }else {\n          uint256 b = TRAToken.balanceOf(address(this));\n          rewardRate = reward.add(b).div(DURATION);\n          periodFinish = startTime.add(DURATION);\n          lastUpdateTime = startTime;\n        }\n\n        TRAToken.mint(address(this),reward);\n        emit RewardAdded(reward);\n\n        _checkRewardRate();\n    }\n    \n    function _checkRewardRate() internal view returns (uint256) {\n        return DURATION.mul(rewardRate).mul(_gunit);\n    }\n}",
  "sourcePath": "/Users/caos/workspace/develop/temp/protocol/contracts/JTAndTRALPTokenStakeRewardPool.sol",
  "compiler": {
    "name": "solc",
    "version": "0.7.6+commit.7338295f.Emscripten.clang"
  },
  "schemaVersion": "3.2.5",
  "updatedAt": "2021-03-17T10:48:40.867Z",
  "devdoc": {
    "kind": "dev",
    "methods": {
      "owner()": {
        "details": "Returns the address of the current owner."
      },
      "renounceOwnership()": {
        "details": "Leaves the contract without owner. It will not be possible to call `onlyOwner` functions anymore. Can only be called by the current owner. NOTE: Renouncing ownership will leave the contract without an owner, thereby removing any functionality that is only available to the owner."
      },
      "transferOwnership(address)": {
        "details": "Transfers ownership of the contract to a new account (`newOwner`). Can only be called by the current owner."
      }
    },
    "version": 1
  },
  "userdoc": {
    "kind": "user",
    "methods": {},
    "version": 1
  }
}