{
  "contractName": "Skyrim",
  "abi": [
    {
      "inputs": [
        {
          "internalType": "address",
          "name": "TRAToken_",
          "type": "address"
        },
        {
          "internalType": "address",
          "name": "STToken_",
          "type": "address"
        },
        {
          "internalType": "address",
          "name": "JTToken_",
          "type": "address"
        },
        {
          "internalType": "address",
          "name": "investMarket_",
          "type": "address"
        },
        {
          "internalType": "address",
          "name": "JTInvestPoolReward_",
          "type": "address"
        }
      ],
      "stateMutability": "payable",
      "type": "constructor"
    },
    {
      "anonymous": false,
      "inputs": [
        {
          "indexed": true,
          "internalType": "address",
          "name": "sender",
          "type": "address"
        },
        {
          "indexed": true,
          "internalType": "uint256",
          "name": "depositID",
          "type": "uint256"
        },
        {
          "indexed": false,
          "internalType": "uint256",
          "name": "amount",
          "type": "uint256"
        }
      ],
      "name": "EInvestByJT",
      "type": "event"
    },
    {
      "anonymous": false,
      "inputs": [
        {
          "indexed": true,
          "internalType": "address",
          "name": "sender",
          "type": "address"
        },
        {
          "indexed": true,
          "internalType": "uint256",
          "name": "depositID",
          "type": "uint256"
        },
        {
          "indexed": false,
          "internalType": "uint256",
          "name": "amount",
          "type": "uint256"
        }
      ],
      "name": "EInvestByST",
      "type": "event"
    },
    {
      "anonymous": false,
      "inputs": [
        {
          "indexed": true,
          "internalType": "address",
          "name": "sender",
          "type": "address"
        },
        {
          "indexed": true,
          "internalType": "uint256",
          "name": "depositID",
          "type": "uint256"
        },
        {
          "indexed": true,
          "internalType": "uint256",
          "name": "fundingID",
          "type": "uint256"
        },
        {
          "indexed": false,
          "internalType": "bool",
          "name": "early",
          "type": "bool"
        },
        {
          "indexed": false,
          "internalType": "uint256",
          "name": "takeBackMPHAmount",
          "type": "uint256"
        }
      ],
      "name": "EWithdraw",
      "type": "event"
    },
    {
      "anonymous": false,
      "inputs": [
        {
          "indexed": true,
          "internalType": "address",
          "name": "previousOwner",
          "type": "address"
        },
        {
          "indexed": true,
          "internalType": "address",
          "name": "newOwner",
          "type": "address"
        }
      ],
      "name": "FundMangerTransferred",
      "type": "event"
    },
    {
      "anonymous": false,
      "inputs": [
        {
          "indexed": true,
          "internalType": "address",
          "name": "previousOwner",
          "type": "address"
        },
        {
          "indexed": true,
          "internalType": "address",
          "name": "newOwner",
          "type": "address"
        }
      ],
      "name": "OwnershipTransferred",
      "type": "event"
    },
    {
      "inputs": [],
      "name": "MaxInvestByJTAmount",
      "outputs": [
        {
          "internalType": "uint256",
          "name": "",
          "type": "uint256"
        }
      ],
      "stateMutability": "view",
      "type": "function"
    },
    {
      "inputs": [],
      "name": "MaxInvestBySTAmount",
      "outputs": [
        {
          "internalType": "uint256",
          "name": "",
          "type": "uint256"
        }
      ],
      "stateMutability": "view",
      "type": "function"
    },
    {
      "inputs": [],
      "name": "MinInvestByJTAmount",
      "outputs": [
        {
          "internalType": "uint256",
          "name": "",
          "type": "uint256"
        }
      ],
      "stateMutability": "view",
      "type": "function"
    },
    {
      "inputs": [],
      "name": "MinInvestBySTAmount",
      "outputs": [
        {
          "internalType": "uint256",
          "name": "",
          "type": "uint256"
        }
      ],
      "stateMutability": "view",
      "type": "function"
    },
    {
      "inputs": [],
      "name": "_DAIToken",
      "outputs": [
        {
          "internalType": "contract IERC20",
          "name": "",
          "type": "address"
        }
      ],
      "stateMutability": "view",
      "type": "function"
    },
    {
      "inputs": [],
      "name": "fundManger",
      "outputs": [
        {
          "internalType": "address",
          "name": "",
          "type": "address"
        }
      ],
      "stateMutability": "view",
      "type": "function"
    },
    {
      "inputs": [],
      "name": "owner",
      "outputs": [
        {
          "internalType": "address",
          "name": "",
          "type": "address"
        }
      ],
      "stateMutability": "view",
      "type": "function"
    },
    {
      "inputs": [],
      "name": "renounceFundManger",
      "outputs": [],
      "stateMutability": "nonpayable",
      "type": "function"
    },
    {
      "inputs": [],
      "name": "renounceOwnership",
      "outputs": [],
      "stateMutability": "nonpayable",
      "type": "function"
    },
    {
      "inputs": [
        {
          "internalType": "address",
          "name": "newFundManager",
          "type": "address"
        }
      ],
      "name": "transferFundManger",
      "outputs": [],
      "stateMutability": "nonpayable",
      "type": "function"
    },
    {
      "inputs": [
        {
          "internalType": "address",
          "name": "newOwner",
          "type": "address"
        }
      ],
      "name": "transferOwnership",
      "outputs": [],
      "stateMutability": "nonpayable",
      "type": "function"
    },
    {
      "inputs": [
        {
          "internalType": "uint256",
          "name": "amount",
          "type": "uint256"
        }
      ],
      "name": "mintST",
      "outputs": [],
      "stateMutability": "nonpayable",
      "type": "function"
    },
    {
      "inputs": [
        {
          "internalType": "uint256",
          "name": "amount",
          "type": "uint256"
        }
      ],
      "name": "mintJT",
      "outputs": [],
      "stateMutability": "nonpayable",
      "type": "function"
    },
    {
      "inputs": [
        {
          "internalType": "uint256",
          "name": "amount",
          "type": "uint256"
        }
      ],
      "name": "investByST",
      "outputs": [],
      "stateMutability": "nonpayable",
      "type": "function"
    },
    {
      "inputs": [
        {
          "internalType": "uint256",
          "name": "amount",
          "type": "uint256"
        }
      ],
      "name": "investByJT",
      "outputs": [],
      "stateMutability": "nonpayable",
      "type": "function"
    },
    {
      "inputs": [
        {
          "internalType": "uint256",
          "name": "amount",
          "type": "uint256"
        }
      ],
      "name": "withdrawByST",
      "outputs": [],
      "stateMutability": "nonpayable",
      "type": "function"
    },
    {
      "inputs": [
        {
          "internalType": "uint256",
          "name": "amount",
          "type": "uint256"
        }
      ],
      "name": "withdrawByJT",
      "outputs": [],
      "stateMutability": "nonpayable",
      "type": "function"
    },
    {
      "inputs": [
        {
          "internalType": "uint256",
          "name": "amount",
          "type": "uint256"
        }
      ],
      "name": "redeemWithST",
      "outputs": [],
      "stateMutability": "nonpayable",
      "type": "function"
    },
    {
      "inputs": [
        {
          "internalType": "uint256",
          "name": "amount",
          "type": "uint256"
        }
      ],
      "name": "redeemWithJT",
      "outputs": [],
      "stateMutability": "nonpayable",
      "type": "function"
    },
    {
      "inputs": [],
      "name": "getSTInvestReward",
      "outputs": [],
      "stateMutability": "nonpayable",
      "type": "function"
    },
    {
      "inputs": [],
      "name": "getJTInvestReward",
      "outputs": [],
      "stateMutability": "nonpayable",
      "type": "function"
    },
    {
      "inputs": [
        {
          "internalType": "uint256",
          "name": "amount",
          "type": "uint256"
        }
      ],
      "name": "stakeSTAndTRAPairPoolToken",
      "outputs": [],
      "stateMutability": "nonpayable",
      "type": "function"
    },
    {
      "inputs": [
        {
          "internalType": "uint256",
          "name": "amount",
          "type": "uint256"
        }
      ],
      "name": "stakeJTAndTRAPairPoolToken",
      "outputs": [],
      "stateMutability": "nonpayable",
      "type": "function"
    },
    {
      "inputs": [
        {
          "internalType": "uint256",
          "name": "amount",
          "type": "uint256"
        }
      ],
      "name": "stakeTRAAndDAIPairPoolToken",
      "outputs": [],
      "stateMutability": "nonpayable",
      "type": "function"
    },
    {
      "inputs": [],
      "name": "withdrawSTAndTRALiquidityReward",
      "outputs": [],
      "stateMutability": "nonpayable",
      "type": "function"
    },
    {
      "inputs": [],
      "name": "withdrawJTAndTRALiquidityReward",
      "outputs": [],
      "stateMutability": "nonpayable",
      "type": "function"
    },
    {
      "inputs": [],
      "name": "withdrawTRAAndDAILiquidityReward",
      "outputs": [],
      "stateMutability": "nonpayable",
      "type": "function"
    },
    {
      "inputs": [
        {
          "internalType": "uint256",
          "name": "amount",
          "type": "uint256"
        }
      ],
      "name": "setMinInvestBySTAmount",
      "outputs": [],
      "stateMutability": "nonpayable",
      "type": "function"
    },
    {
      "inputs": [
        {
          "internalType": "uint256",
          "name": "amount",
          "type": "uint256"
        }
      ],
      "name": "setMaxInvestBySTAmount",
      "outputs": [],
      "stateMutability": "nonpayable",
      "type": "function"
    },
    {
      "inputs": [
        {
          "internalType": "uint256",
          "name": "amount",
          "type": "uint256"
        }
      ],
      "name": "setMinInvestByJTAmount",
      "outputs": [],
      "stateMutability": "nonpayable",
      "type": "function"
    },
    {
      "inputs": [
        {
          "internalType": "uint256",
          "name": "amount",
          "type": "uint256"
        }
      ],
      "name": "setMaxInvestByJTAmount",
      "outputs": [],
      "stateMutability": "nonpayable",
      "type": "function"
    }
  ],
  "bytecode": "0x608060405273ad6d458402f60fd3bd25163575031acdce07538d600360006101000a81548173ffffffffffffffffffffffffffffffffffffffff021916908373ffffffffffffffffffffffffffffffffffffffff16021790555073ce59a6b3f4c5b3da0d73a186032bbb58cb576264600460006101000a81548173ffffffffffffffffffffffffffffffffffffffff021916908373ffffffffffffffffffffffffffffffffffffffff16021790555060016018556040516200360a3803806200360a833981810160405260a08110156100d757600080fd5b810190808051906020019092919080519060200190929190805190602001909291908051906020019092919080519060200190929190505050600061012061031560201b60201c565b9050806000806101000a81548173ffffffffffffffffffffffffffffffffffffffff021916908373ffffffffffffffffffffffffffffffffffffffff1602179055508073ffffffffffffffffffffffffffffffffffffffff16600073ffffffffffffffffffffffffffffffffffffffff167f8be0079c531659141344cd1fd0a4f28419497f9722a3daafe3b4186f6b6457e060405160405180910390a350600160028190555084600560006101000a81548173ffffffffffffffffffffffffffffffffffffffff021916908373ffffffffffffffffffffffffffffffffffffffff16021790555083600660006101000a81548173ffffffffffffffffffffffffffffffffffffffff021916908373ffffffffffffffffffffffffffffffffffffffff16021790555082600760006101000a81548173ffffffffffffffffffffffffffffffffffffffff021916908373ffffffffffffffffffffffffffffffffffffffff16021790555081600860006101000a81548173ffffffffffffffffffffffffffffffffffffffff021916908373ffffffffffffffffffffffffffffffffffffffff16021790555080600b60006101000a81548173ffffffffffffffffffffffffffffffffffffffff021916908373ffffffffffffffffffffffffffffffffffffffff160217905550505050505061031d565b600033905090565b6132dd806200032d6000396000f3fe608060405234801561001057600080fd5b50600436106101e55760003560e01c806395fe0c1b1161010f578063c7332999116100a2578063f2fde38b11610071578063f2fde38b146105d4578063f6071e1314610618578063fed4ec7914610646578063ff1061c814610650576101e5565b8063c733299914610560578063cb9316dd1461057e578063cc37a7c914610588578063d846c994146105a6576101e5565b8063ba0f734e116100de578063ba0f734e146104ea578063c11fc5ba146104f4578063c3a4ee9514610522578063c3b4aaea14610556576101e5565b806395fe0c1b146104325780639e81c57414610460578063a214ec071461048e578063a61dab2f146104bc576101e5565b80635f7c91b1116101875780638158f2b5116101565780638158f2b51461038457806381f1a4d1146103b25780638b230fe0146103d05780638da5cb5b146103fe576101e5565b80635f7c91b11461031e5780637099f30714610328578063715018a6146103465780637454a54614610350576101e5565b8063416cecc1116101c3578063416cecc11461027457806344579e3d146102a25780634b263e23146102ac5780634b585678146102f0576101e5565b80630fd3094b146101ea578063240376a4146102185780634147af1014610246575b600080fd5b6102166004803603602081101561020057600080fd5b810190808035906020019092919050505061067e565b005b6102446004803603602081101561022e57600080fd5b8101908080359060200190929190505050610799565b005b6102726004803603602081101561025c57600080fd5b810190808035906020019092919050505061079c565b005b6102a06004803603602081101561028a57600080fd5b810190808035906020019092919050505061079f565b005b6102aa610858565b005b6102ee600480360360208110156102c257600080fd5b81019080803573ffffffffffffffffffffffffffffffffffffffff16906020019092919050505061085a565b005b61031c6004803603602081101561030657600080fd5b8101908080359060200190929190505050610a4f565b005b610326610e7b565b005b610330610e7d565b6040518082815260200191505060405180910390f35b61034e610e83565b005b610358610ff0565b604051808273ffffffffffffffffffffffffffffffffffffffff16815260200191505060405180910390f35b6103b06004803603602081101561039a57600080fd5b8101908080359060200190929190505050611016565b005b6103ba611019565b6040518082815260200191505060405180910390f35b6103fc600480360360208110156103e657600080fd5b810190808035906020019092919050505061101f565b005b610406611022565b604051808273ffffffffffffffffffffffffffffffffffffffff16815260200191505060405180910390f35b61045e6004803603602081101561044857600080fd5b810190808035906020019092919050505061104b565b005b61048c6004803603602081101561047657600080fd5b8101908080359060200190929190505050611104565b005b6104ba600480360360208110156104a457600080fd5b81019080803590602001909291905050506114a5565b005b6104e8600480360360208110156104d257600080fd5b810190808035906020019092919050505061155e565b005b6104f261198a565b005b6105206004803603602081101561050a57600080fd5b8101908080359060200190929190505050611a0e565b005b61052a611ac7565b604051808273ffffffffffffffffffffffffffffffffffffffff16815260200191505060405180910390f35b61055e611af1565b005b610568611af3565b6040518082815260200191505060405180910390f35b610586611af9565b005b610590611b7d565b6040518082815260200191505060405180910390f35b6105d2600480360360208110156105bc57600080fd5b8101908080359060200190929190505050611b83565b005b610616600480360360208110156105ea57600080fd5b81019080803573ffffffffffffffffffffffffffffffffffffffff169060200190929190505050611c9e565b005b6106446004803603602081101561062e57600080fd5b8101908080359060200190929190505050611e90565b005b61064e611e93565b005b61067c6004803603602081101561066657600080fd5b8101908080359060200190929190505050612003565b005b6002805414156106f6576040517f08c379a000000000000000000000000000000000000000000000000000000000815260040180806020018281038252601f8152602001807f5265656e7472616e637947756172643a207265656e7472616e742063616c6c0081525060200191505060405180910390fd5b60028081905550600160185414610775576040517f08c379a00000000000000000000000000000000000000000000000000000000081526004018080602001828103825260138152602001807f53656e696f72546f6b656e3a204c4f434b45440000000000000000000000000081525060200191505060405180910390fd5b60006018819055506107868161239d565b6001601881905550600160028190555050565b50565b50565b6107a76126f1565b73ffffffffffffffffffffffffffffffffffffffff166107c5611022565b73ffffffffffffffffffffffffffffffffffffffff161461084e576040517f08c379a00000000000000000000000000000000000000000000000000000000081526004018080602001828103825260208152602001807f4f776e61626c653a2063616c6c6572206973206e6f7420746865206f776e657281525060200191505060405180910390fd5b8060168190555050565b565b6108626126f1565b73ffffffffffffffffffffffffffffffffffffffff16610880611ac7565b73ffffffffffffffffffffffffffffffffffffffff1614610909576040517f08c379a00000000000000000000000000000000000000000000000000000000081526004018080602001828103825260208152602001807f4f776e61626c653a2063616c6c6572206973206e6f7420746865206f776e657281525060200191505060405180910390fd5b600073ffffffffffffffffffffffffffffffffffffffff168173ffffffffffffffffffffffffffffffffffffffff16141561098f576040517f08c379a000000000000000000000000000000000000000000000000000000000815260040180806020018281038252602681526020018061314e6026913960400191505060405180910390fd5b8073ffffffffffffffffffffffffffffffffffffffff16600160009054906101000a900473ffffffffffffffffffffffffffffffffffffffff1673ffffffffffffffffffffffffffffffffffffffff167f0d69cb0842cd5fbeeaf59888a1ea1e4bb6d7434e68e5de67286d5f6388bdfc5360405160405180910390a380600160006101000a81548173ffffffffffffffffffffffffffffffffffffffff021916908373ffffffffffffffffffffffffffffffffffffffff16021790555050565b600280541415610ac7576040517f08c379a000000000000000000000000000000000000000000000000000000000815260040180806020018281038252601f8152602001807f5265656e7472616e637947756172643a207265656e7472616e742063616c6c0081525060200191505060405180910390fd5b60028081905550600160185414610b46576040517f08c379a00000000000000000000000000000000000000000000000000000000081526004018080602001828103825260138152602001807f53656e696f72546f6b656e3a204c4f434b45440000000000000000000000000081525060200191505060405180910390fd5b600060188190555060008111610bc4576040517f08c379a000000000000000000000000000000000000000000000000000000000815260040180806020018281038252601c8152602001807f645452414e4348453a206d696e74535420616d6f756e7420697320300000000081525060200191505060405180910390fd5b6000600360009054906101000a900473ffffffffffffffffffffffffffffffffffffffff1673ffffffffffffffffffffffffffffffffffffffff166370a08231306040518263ffffffff1660e01b8152600401808273ffffffffffffffffffffffffffffffffffffffff16815260200191505060206040518083038186803b158015610c4f57600080fd5b505afa158015610c63573d6000803e3d6000fd5b505050506040513d6020811015610c7957600080fd5b81019080805190602001909291905050509050610cdb333084600360009054906101000a900473ffffffffffffffffffffffffffffffffffffffff1673ffffffffffffffffffffffffffffffffffffffff166126f9909392919063ffffffff16565b6000600360009054906101000a900473ffffffffffffffffffffffffffffffffffffffff1673ffffffffffffffffffffffffffffffffffffffff166370a08231306040518263ffffffff1660e01b8152600401808273ffffffffffffffffffffffffffffffffffffffff16815260200191505060206040518083038186803b158015610d6657600080fd5b505afa158015610d7a573d6000803e3d6000fd5b505050506040513d6020811015610d9057600080fd5b810190808051906020019092919050505090506000610db883836127ba90919063ffffffff16565b9050600660009054906101000a900473ffffffffffffffffffffffffffffffffffffffff1673ffffffffffffffffffffffffffffffffffffffff166340c10f1933836040518363ffffffff1660e01b8152600401808373ffffffffffffffffffffffffffffffffffffffff16815260200182815260200192505050600060405180830381600087803b158015610e4d57600080fd5b505af1158015610e61573d6000803e3d6000fd5b505050505050506001601881905550600160028190555050565b565b60145481565b610e8b6126f1565b73ffffffffffffffffffffffffffffffffffffffff16610ea9611022565b73ffffffffffffffffffffffffffffffffffffffff1614610f32576040517f08c379a00000000000000000000000000000000000000000000000000000000081526004018080602001828103825260208152602001807f4f776e61626c653a2063616c6c6572206973206e6f7420746865206f776e657281525060200191505060405180910390fd5b600073ffffffffffffffffffffffffffffffffffffffff1660008054906101000a900473ffffffffffffffffffffffffffffffffffffffff1673ffffffffffffffffffffffffffffffffffffffff167f8be0079c531659141344cd1fd0a4f28419497f9722a3daafe3b4186f6b6457e060405160405180910390a360008060006101000a81548173ffffffffffffffffffffffffffffffffffffffff021916908373ffffffffffffffffffffffffffffffffffffffff160217905550565b600360009054906101000a900473ffffffffffffffffffffffffffffffffffffffff1681565b50565b60155481565b50565b60008060009054906101000a900473ffffffffffffffffffffffffffffffffffffffff16905090565b6110536126f1565b73ffffffffffffffffffffffffffffffffffffffff16611071611022565b73ffffffffffffffffffffffffffffffffffffffff16146110fa576040517f08c379a00000000000000000000000000000000000000000000000000000000081526004018080602001828103825260208152602001807f4f776e61626c653a2063616c6c6572206973206e6f7420746865206f776e657281525060200191505060405180910390fd5b8060138190555050565b6000811161115d576040517f08c379a000000000000000000000000000000000000000000000000000000000815260040180806020018281038252602281526020018061320a6022913960400191505060405180910390fd5b6000600760009054906101000a900473ffffffffffffffffffffffffffffffffffffffff1673ffffffffffffffffffffffffffffffffffffffff166370a08231336040518263ffffffff1660e01b8152600401808273ffffffffffffffffffffffffffffffffffffffff16815260200191505060206040518083038186803b1580156111e857600080fd5b505afa1580156111fc573d6000803e3d6000fd5b505050506040513d602081101561121257600080fd5b810190808051906020019092919050505090508181101561127e576040517f08c379a00000000000000000000000000000000000000000000000000000000081526004018080602001828103825260278152602001806131e36027913960400191505060405180910390fd5b6000600360009054906101000a900473ffffffffffffffffffffffffffffffffffffffff1673ffffffffffffffffffffffffffffffffffffffff166370a08231306040518263ffffffff1660e01b8152600401808273ffffffffffffffffffffffffffffffffffffffff16815260200191505060206040518083038186803b15801561130957600080fd5b505afa15801561131d573d6000803e3d6000fd5b505050506040513d602081101561133357600080fd5b810190808051906020019092919050505090508281101561139f576040517f08c379a000000000000000000000000000000000000000000000000000000000815260040180806020018281038252602d815260200180613121602d913960400191505060405180910390fd5b6113ee303385600360009054906101000a900473ffffffffffffffffffffffffffffffffffffffff1673ffffffffffffffffffffffffffffffffffffffff166126f9909392919063ffffffff16565b600760009054906101000a900473ffffffffffffffffffffffffffffffffffffffff1673ffffffffffffffffffffffffffffffffffffffff166379cc67906114346126f1565b856040518363ffffffff1660e01b8152600401808373ffffffffffffffffffffffffffffffffffffffff16815260200182815260200192505050600060405180830381600087803b15801561148857600080fd5b505af115801561149c573d6000803e3d6000fd5b50505050505050565b6114ad6126f1565b73ffffffffffffffffffffffffffffffffffffffff166114cb611022565b73ffffffffffffffffffffffffffffffffffffffff1614611554576040517f08c379a00000000000000000000000000000000000000000000000000000000081526004018080602001828103825260208152602001807f4f776e61626c653a2063616c6c6572206973206e6f7420746865206f776e657281525060200191505060405180910390fd5b8060158190555050565b6002805414156115d6576040517f08c379a000000000000000000000000000000000000000000000000000000000815260040180806020018281038252601f8152602001807f5265656e7472616e637947756172643a207265656e7472616e742063616c6c0081525060200191505060405180910390fd5b60028081905550600160185414611655576040517f08c379a00000000000000000000000000000000000000000000000000000000081526004018080602001828103825260138152602001807f53656e696f72546f6b656e3a204c4f434b45440000000000000000000000000081525060200191505060405180910390fd5b6000601881905550600081116116d3576040517f08c379a000000000000000000000000000000000000000000000000000000000815260040180806020018281038252601c8152602001807f645452414e4348453a206d696e744a5420616d6f756e7420697320300000000081525060200191505060405180910390fd5b6000600360009054906101000a900473ffffffffffffffffffffffffffffffffffffffff1673ffffffffffffffffffffffffffffffffffffffff166370a08231306040518263ffffffff1660e01b8152600401808273ffffffffffffffffffffffffffffffffffffffff16815260200191505060206040518083038186803b15801561175e57600080fd5b505afa158015611772573d6000803e3d6000fd5b505050506040513d602081101561178857600080fd5b810190808051906020019092919050505090506117ea333084600360009054906101000a900473ffffffffffffffffffffffffffffffffffffffff1673ffffffffffffffffffffffffffffffffffffffff166126f9909392919063ffffffff16565b6000600360009054906101000a900473ffffffffffffffffffffffffffffffffffffffff1673ffffffffffffffffffffffffffffffffffffffff166370a08231306040518263ffffffff1660e01b8152600401808273ffffffffffffffffffffffffffffffffffffffff16815260200191505060206040518083038186803b15801561187557600080fd5b505afa158015611889573d6000803e3d6000fd5b505050506040513d602081101561189f57600080fd5b8101908080519060200190929190505050905060006118c783836127ba90919063ffffffff16565b9050600760009054906101000a900473ffffffffffffffffffffffffffffffffffffffff1673ffffffffffffffffffffffffffffffffffffffff166340c10f1933836040518363ffffffff1660e01b8152600401808373ffffffffffffffffffffffffffffffffffffffff16815260200182815260200192505050600060405180830381600087803b15801561195c57600080fd5b505af1158015611970573d6000803e3d6000fd5b505050505050506001601881905550600160028190555050565b600d60009054906101000a900473ffffffffffffffffffffffffffffffffffffffff1673ffffffffffffffffffffffffffffffffffffffff16633d18b9126040518163ffffffff1660e01b8152600401600060405180830381600087803b1580156119f457600080fd5b505af1158015611a08573d6000803e3d6000fd5b50505050565b611a166126f1565b73ffffffffffffffffffffffffffffffffffffffff16611a34611022565b73ffffffffffffffffffffffffffffffffffffffff1614611abd576040517f08c379a00000000000000000000000000000000000000000000000000000000081526004018080602001828103825260208152602001807f4f776e61626c653a2063616c6c6572206973206e6f7420746865206f776e657281525060200191505060405180910390fd5b8060148190555050565b6000600160009054906101000a900473ffffffffffffffffffffffffffffffffffffffff16905090565b565b60165481565b600b60009054906101000a900473ffffffffffffffffffffffffffffffffffffffff1673ffffffffffffffffffffffffffffffffffffffff16633d18b9126040518163ffffffff1660e01b8152600401600060405180830381600087803b158015611b6357600080fd5b505af1158015611b77573d6000803e3d6000fd5b50505050565b60135481565b600280541415611bfb576040517f08c379a000000000000000000000000000000000000000000000000000000000815260040180806020018281038252601f8152602001807f5265656e7472616e637947756172643a207265656e7472616e742063616c6c0081525060200191505060405180910390fd5b60028081905550600160185414611c7a576040517f08c379a00000000000000000000000000000000000000000000000000000000081526004018080602001828103825260138152602001807f53656e696f72546f6b656e3a204c4f434b45440000000000000000000000000081525060200191505060405180910390fd5b6000601881905550611c8b8161283d565b6001601881905550600160028190555050565b611ca66126f1565b73ffffffffffffffffffffffffffffffffffffffff16611cc4611022565b73ffffffffffffffffffffffffffffffffffffffff1614611d4d576040517f08c379a00000000000000000000000000000000000000000000000000000000081526004018080602001828103825260208152602001807f4f776e61626c653a2063616c6c6572206973206e6f7420746865206f776e657281525060200191505060405180910390fd5b600073ffffffffffffffffffffffffffffffffffffffff168173ffffffffffffffffffffffffffffffffffffffff161415611dd3576040517f08c379a000000000000000000000000000000000000000000000000000000000815260040180806020018281038252602681526020018061314e6026913960400191505060405180910390fd5b8073ffffffffffffffffffffffffffffffffffffffff1660008054906101000a900473ffffffffffffffffffffffffffffffffffffffff1673ffffffffffffffffffffffffffffffffffffffff167f8be0079c531659141344cd1fd0a4f28419497f9722a3daafe3b4186f6b6457e060405160405180910390a3806000806101000a81548173ffffffffffffffffffffffffffffffffffffffff021916908373ffffffffffffffffffffffffffffffffffffffff16021790555050565b50565b611e9b6126f1565b73ffffffffffffffffffffffffffffffffffffffff16611eb9611ac7565b73ffffffffffffffffffffffffffffffffffffffff1614611f42576040517f08c379a00000000000000000000000000000000000000000000000000000000081526004018080602001828103825260208152602001807f4f776e61626c653a2063616c6c6572206973206e6f7420746865206f776e657281525060200191505060405180910390fd5b600073ffffffffffffffffffffffffffffffffffffffff16600160009054906101000a900473ffffffffffffffffffffffffffffffffffffffff1673ffffffffffffffffffffffffffffffffffffffff167f0d69cb0842cd5fbeeaf59888a1ea1e4bb6d7434e68e5de67286d5f6388bdfc5360405160405180910390a36000600160006101000a81548173ffffffffffffffffffffffffffffffffffffffff021916908373ffffffffffffffffffffffffffffffffffffffff160217905550565b6000811161205c576040517f08c379a00000000000000000000000000000000000000000000000000000000081526004018080602001828103825260228152602001806131746022913960400191505060405180910390fd5b6000600660009054906101000a900473ffffffffffffffffffffffffffffffffffffffff1673ffffffffffffffffffffffffffffffffffffffff166370a08231336040518263ffffffff1660e01b8152600401808273ffffffffffffffffffffffffffffffffffffffff16815260200191505060206040518083038186803b1580156120e757600080fd5b505afa1580156120fb573d6000803e3d6000fd5b505050506040513d602081101561211157600080fd5b810190808051906020019092919050505090508181101561217d576040517f08c379a00000000000000000000000000000000000000000000000000000000081526004018080602001828103825260278152602001806131bc6027913960400191505060405180910390fd5b6000600360009054906101000a900473ffffffffffffffffffffffffffffffffffffffff1673ffffffffffffffffffffffffffffffffffffffff166370a08231306040518263ffffffff1660e01b8152600401808273ffffffffffffffffffffffffffffffffffffffff16815260200191505060206040518083038186803b15801561220857600080fd5b505afa15801561221c573d6000803e3d6000fd5b505050506040513d602081101561223257600080fd5b810190808051906020019092919050505090508281101561229e576040517f08c379a000000000000000000000000000000000000000000000000000000000815260040180806020018281038252602d81526020018061322c602d913960400191505060405180910390fd5b6122ed303385600360009054906101000a900473ffffffffffffffffffffffffffffffffffffffff1673ffffffffffffffffffffffffffffffffffffffff166126f9909392919063ffffffff16565b600660009054906101000a900473ffffffffffffffffffffffffffffffffffffffff1673ffffffffffffffffffffffffffffffffffffffff166379cc679033856040518363ffffffff1660e01b8152600401808373ffffffffffffffffffffffffffffffffffffffff16815260200182815260200192505050600060405180830381600087803b15801561238057600080fd5b505af1158015612394573d6000803e3d6000fd5b50505050505050565b60145481101580156123b157506014548111155b612406576040517f08c379a00000000000000000000000000000000000000000000000000000000081526004018080602001828103825260258152602001806132596025913960400191505060405180910390fd5b61241b81601254612b9190919063ffffffff16565b60128190555060106040518060a00160405280838152602001600115158152602001600015158152602001600081526020014281525090806001815401808255809150506001900390600052602060002090600402016000909190919091506000820151816000015560208201518160010160006101000a81548160ff02191690831515021790555060408201518160010160016101000a81548160ff02191690831515021790555060608201518160020155608082015181600301555050612529333083600660009054906101000a900473ffffffffffffffffffffffffffffffffffffffff1673ffffffffffffffffffffffffffffffffffffffff166126f9909392919063ffffffff16565b612598600860009054906101000a900473ffffffffffffffffffffffffffffffffffffffff1682600360009054906101000a900473ffffffffffffffffffffffffffffffffffffffff1673ffffffffffffffffffffffffffffffffffffffff16612c199092919063ffffffff16565b612607600860009054906101000a900473ffffffffffffffffffffffffffffffffffffffff1682600660009054906101000a900473ffffffffffffffffffffffffffffffffffffffff1673ffffffffffffffffffffffffffffffffffffffff16612c199092919063ffffffff16565b600860009054906101000a900473ffffffffffffffffffffffffffffffffffffffff1673ffffffffffffffffffffffffffffffffffffffff16637bb6e98b826040518263ffffffff1660e01b815260040180828152602001915050600060405180830381600087803b15801561267c57600080fd5b505af1158015612690573d6000803e3d6000fd5b5050505060006010805490509050803373ffffffffffffffffffffffffffffffffffffffff167f98236299627655095552ca9a5f41d4beaa7d02eccbc710d612b3584047f258c6846040518082815260200191505060405180910390a35050565b600033905090565b6127b4846323b872dd60e01b858585604051602401808473ffffffffffffffffffffffffffffffffffffffff1681526020018373ffffffffffffffffffffffffffffffffffffffff1681526020018281526020019350505050604051602081830303815290604052907bffffffffffffffffffffffffffffffffffffffffffffffffffffffff19166020820180517bffffffffffffffffffffffffffffffffffffffffffffffffffffffff8381831617835250505050612d92565b50505050565b600082821115612832576040517f08c379a000000000000000000000000000000000000000000000000000000000815260040180806020018281038252601e8152602001807f536166654d6174683a207375627472616374696f6e206f766572666c6f77000081525060200191505060405180910390fd5b818303905092915050565b601654811015801561285157506016548111155b6128a6576040517f08c379a00000000000000000000000000000000000000000000000000000000081526004018080602001828103825260258152602001806132596025913960400191505060405180910390fd5b6128bb81601154612b9190919063ffffffff16565b601181905550600f6040518060a00160405280838152602001600115158152602001600015158152602001600081526020014281525090806001815401808255809150506001900390600052602060002090600402016000909190919091506000820151816000015560208201518160010160006101000a81548160ff02191690831515021790555060408201518160010160016101000a81548160ff021916908315150217905550606082015181600201556080820151816003015550506129c9333083600760009054906101000a900473ffffffffffffffffffffffffffffffffffffffff1673ffffffffffffffffffffffffffffffffffffffff166126f9909392919063ffffffff16565b612a38600860009054906101000a900473ffffffffffffffffffffffffffffffffffffffff1682600360009054906101000a900473ffffffffffffffffffffffffffffffffffffffff1673ffffffffffffffffffffffffffffffffffffffff16612c199092919063ffffffff16565b612aa7600860009054906101000a900473ffffffffffffffffffffffffffffffffffffffff1682600760009054906101000a900473ffffffffffffffffffffffffffffffffffffffff1673ffffffffffffffffffffffffffffffffffffffff16612c199092919063ffffffff16565b600860009054906101000a900473ffffffffffffffffffffffffffffffffffffffff1673ffffffffffffffffffffffffffffffffffffffff16636ac5cdb6826040518263ffffffff1660e01b815260040180828152602001915050600060405180830381600087803b158015612b1c57600080fd5b505af1158015612b30573d6000803e3d6000fd5b505050506000600f805490509050803373ffffffffffffffffffffffffffffffffffffffff167f66aec1574e416b3dac4b891136ecca76fada48010f5e67d9744adee19eb93199846040518082815260200191505060405180910390a35050565b600080828401905083811015612c0f576040517f08c379a000000000000000000000000000000000000000000000000000000000815260040180806020018281038252601b8152602001807f536166654d6174683a206164646974696f6e206f766572666c6f77000000000081525060200191505060405180910390fd5b8091505092915050565b6000612ced828573ffffffffffffffffffffffffffffffffffffffff1663dd62ed3e30876040518363ffffffff1660e01b8152600401808373ffffffffffffffffffffffffffffffffffffffff1681526020018273ffffffffffffffffffffffffffffffffffffffff1681526020019250505060206040518083038186803b158015612ca457600080fd5b505afa158015612cb8573d6000803e3d6000fd5b505050506040513d6020811015612cce57600080fd5b8101908080519060200190929190505050612b9190919063ffffffff16565b9050612d8c8463095ea7b360e01b8584604051602401808373ffffffffffffffffffffffffffffffffffffffff16815260200182815260200192505050604051602081830303815290604052907bffffffffffffffffffffffffffffffffffffffffffffffffffffffff19166020820180517bffffffffffffffffffffffffffffffffffffffffffffffffffffffff8381831617835250505050612d92565b50505050565b6000612df4826040518060400160405280602081526020017f5361666545524332303a206c6f772d6c6576656c2063616c6c206661696c65648152508573ffffffffffffffffffffffffffffffffffffffff16612e819092919063ffffffff16565b9050600081511115612e7c57808060200190516020811015612e1557600080fd5b8101908080519060200190929190505050612e7b576040517f08c379a000000000000000000000000000000000000000000000000000000000815260040180806020018281038252602a81526020018061327e602a913960400191505060405180910390fd5b5b505050565b6060612e908484600085612e99565b90509392505050565b606082471015612ef4576040517f08c379a00000000000000000000000000000000000000000000000000000000081526004018080602001828103825260268152602001806131966026913960400191505060405180910390fd5b612efd85613041565b612f6f576040517f08c379a000000000000000000000000000000000000000000000000000000000815260040180806020018281038252601d8152602001807f416464726573733a2063616c6c20746f206e6f6e2d636f6e747261637400000081525060200191505060405180910390fd5b6000808673ffffffffffffffffffffffffffffffffffffffff1685876040518082805190602001908083835b60208310612fbe5780518252602082019150602081019050602083039250612f9b565b6001836020036101000a03801982511681845116808217855250505050505090500191505060006040518083038185875af1925050503d8060008114613020576040519150601f19603f3d011682016040523d82523d6000602084013e613025565b606091505b5091509150613035828286613054565b92505050949350505050565b600080823b905060008111915050919050565b6060831561306457829050613119565b6000835111156130775782518084602001fd5b816040517f08c379a00000000000000000000000000000000000000000000000000000000081526004018080602001828103825283818151815260200191508051906020019080838360005b838110156130de5780820151818401526020810190506130c3565b50505050905090810190601f16801561310b5780820380516001836020036101000a031916815260200191505b509250505060405180910390fd5b939250505056fe645452414e4348453a20776974686472617742794a542062616c616e63654f6654686973203c20616d6f756e744f776e61626c653a206e6577206f776e657220697320746865207a65726f2061646472657373645452414e4348453a2077697468647261774279535420616d6f756e742069732030416464726573733a20696e73756666696369656e742062616c616e636520666f722063616c6c645452414e4348453a207769746864726177427953542062616c616e6365203c20616d6f756e74645452414e4348453a20776974686472617742794a542062616c616e6365203c20616d6f756e74645452414e4348453a20776974686472617742794a5420616d6f756e742069732030645452414e4348453a207769746864726177427953542062616c616e63654f6654686973203c20616d6f756e74645452414e4348453a204465706f73697420616d6f756e74206f7574206f662072616e67655361666545524332303a204552433230206f7065726174696f6e20646964206e6f742073756363656564a26469706673582212200c20ebde87a9945b63ea455f9fae1f36d8d37ad3872edc36c3361f5d51e504e464736f6c63430007060033",
  "immutableReferences": {},
  "source": "// SPDX-License-Identifier: MIT\n\npragma solidity >=0.7.0 <0.8.0;\n\nimport \"@openzeppelin/contracts/token/ERC20/SafeERC20.sol\";\nimport \"@openzeppelin/contracts/math/SafeMath.sol\";\nimport \"@openzeppelin/contracts/access/Ownable.sol\";\nimport \"@openzeppelin/contracts/token/ERC20/IERC20.sol\";\nimport \"@openzeppelin/contracts/utils/ReentrancyGuard.sol\";\nimport \"./FundManager.sol\";\nimport \"./IRegistry.sol\";\nimport \"./JuniorToken.sol\";\nimport \"./JuniorInvestPool.sol\";\nimport \"./JuniorInvestPoolReward.sol\";\nimport \"./SeniorToken.sol\";\nimport \"./SeniorInvestPool.sol\";\nimport \"./SeniorInvestPoolReward.sol\";\nimport \"./SkyrimToken.sol\";\nimport \"./IInvestMarket.sol\";\nimport \"./SkyrimInvestMarket.sol\";\n\n\ncontract Skyrim is Ownable, FundManager, ReentrancyGuard {\n    using SafeERC20 for SeniorToken;\n     using SafeERC20 for JuniorToken;\n    using SafeERC20 for IERC20;\n    // using Address for address;\n    using SafeMath for uint;\n\n    // keccak256 hash of \"Skyrim.handler.registry\"\n    bytes32 private constant HANDLER_REGISTRY = 0x6874162fd62902201ea0f4bf541086067b3b88bd802fac9e150fd2d1db584e19;\n\n    IERC20 public _DAIToken = IERC20(0xaD6D458402F60fD3Bd25163575031ACDce07538D); //TODO change to mainnet address\n\n    address FundManagerAddress = address(0xce59a6b3f4c5B3Da0d73A186032BbB58cb576264); //TODO change to fund manager address\n\n    SkyrimToken _TRAToken;\n    SeniorToken _STToken;\n    JuniorToken _JTToken; \n    SkyrimInvestMarket _investMarket;\n\n    address _STPool;\n    JuniorInvestPool _JTInvestPool;\n    JuniorInvestPoolReward _JTInvestPoolReward;\n    SeniorInvestPool _STInvestPool;\n    SeniorInvestPoolReward _STInvestPoolReward;\n    address _pollLiquitidyReward;\n\n\n    // User deposit data\n    // Each deposit has an ID used in the depositNFT, which is equal to its index in `deposits` plus 1\n    struct InvestByJTInfo {\n        uint256 amount; // Amount of stablecoin deposited\n        bool active; // True if not yet withdrawn, false if withdrawn\n        bool finalSurplusIsNegative;\n        uint256 finalSurplusAmount; // Surplus remaining after withdrawal\n        uint256 investTimestamp; // Unix timestamp at time of deposit, in seconds\n    }\n    InvestByJTInfo[] internal investByJTInfos;\n\n    struct InvestBySTInfo {\n        uint256 amount; // Amount of stablecoin deposited\n        bool active; // True if not yet withdrawn, false if withdrawn\n        bool finalSurplusIsNegative;\n        uint256 finalSurplusAmount; // Surplus remaining after withdrawal\n        uint256 investTimestamp; // Unix timestamp at time of deposit, in seconds\n    }\n\n    InvestBySTInfo[] internal investBySTInfos;\n\n    uint256 _totalInvestByJT;\n    uint256 _totalInvestByST;\n\n    uint256 public MinInvestBySTAmount; // Minimum invest by ST amount for each invest, in stablecoins\n    uint256 public MaxInvestBySTAmount; // Maximum invest by ST amount for each invest, in stablecoins\n\n    uint256 public MinInvestByJTAmount; // Minimum invest by JT amount for each invest, in stablecoins\n    uint256 public MaxInvestByJTAmount; // Maximum invest by JT amount for each invest, in stablecoins\n\n    mapping(string => address) private _investProductWhiteList; \n\n    // Events\n    event EInvestByST(\n        address indexed sender,\n        uint256 indexed depositID,\n        uint256 amount\n    );\n\n    event EInvestByJT(\n        address indexed sender,\n        uint256 indexed depositID,\n        uint256 amount\n    );\n\n    event EWithdraw(\n        address indexed sender,\n        uint256 indexed depositID,\n        uint256 indexed fundingID,\n        bool early,\n        uint256 takeBackMPHAmount\n    );\n\n    uint private unlocked = 1;\n\n    modifier lock() {\n        require(unlocked == 1, 'SeniorToken: LOCKED');\n        unlocked = 0;\n        _;\n        unlocked = 1;\n    }\n\n    constructor (address TRAToken_, address STToken_, address JTToken_, address investMarket_, address JTInvestPoolReward_) payable {\n        _TRAToken = SkyrimToken(TRAToken_);\n        _STToken = SeniorToken(STToken_);\n        _JTToken = JuniorToken(JTToken_);\n        _investMarket = SkyrimInvestMarket(investMarket_);\n        _JTInvestPoolReward = JuniorInvestPoolReward(JTInvestPoolReward_);\n    }\n\n    /// @notice Get the registry contract address.\n    function _getRegistry() internal view returns (address registry) {\n        bytes32 slot = HANDLER_REGISTRY;\n        assembly {\n            registry := sload(slot)\n        }\n    }\n\n    /// @notice Check if the handler is valid in registry.\n    function _isValid(address handler) internal view returns (bool result) {\n        return IRegistry(_getRegistry()).isValid(handler);\n    }\n\n    function mintST(uint256 amount) public nonReentrant lock {\n        require(amount > 0, \"Skyrim: mintST amount is 0\");\n\n        uint256 _before = _DAIToken.balanceOf(address(this));\n        _DAIToken.safeTransferFrom(msg.sender, address(this), amount);\n        uint256 _after = _DAIToken.balanceOf(address(this));\n        uint256 _amount = _after.sub(_before);\n\n        _STToken.mint(msg.sender, _amount);\n    }\n\n    function mintJT(uint256 amount) public nonReentrant lock {\n        require(amount > 0, \"Skyrim: mintJT amount is 0\");\n\n        uint256 _before = _DAIToken.balanceOf(address(this));\n        _DAIToken.safeTransferFrom(msg.sender, address(this), amount);\n        uint256 _after = _DAIToken.balanceOf(address(this));\n        uint256 _amount = _after.sub(_before);\n\n        _JTToken.mint(msg.sender, _amount);\n    }\n\n    function investByST(uint256 amount) public nonReentrant lock {\n        _investByST(amount);\n    }\n\n    function investByJT(uint256 amount) public nonReentrant lock {\n        _investByJT(amount);\n    }\n\n    function withdrawByST(uint256 amount) public {\n        require(amount > 0, \"Skyrim: withdrawByST amount is 0\");\n\n        uint256 balance = _STToken.balanceOf(msg.sender);\n        require(balance >= amount, \"Skyrim: withdrawByST balance < amount\");\n\n        uint256 balanceOfThis = _DAIToken.balanceOf(address(this));\n        require(balanceOfThis >= amount, \"Skyrim: withdrawByST balanceOfThis < amount\");\n\n        _DAIToken.safeTransferFrom(address(this), msg.sender, amount);\n\n        _STToken.burnFrom(msg.sender, amount);\n    }\n\n    function withdrawByJT(uint256 amount) public {\n        require(amount > 0, \"Skyrim: withdrawByJT amount is 0\");\n\n        uint256 balance = _JTToken.balanceOf(msg.sender);\n        require(balance >= amount, \"Skyrim: withdrawByJT balance < amount\");\n\n        uint256 balanceOfThis = _DAIToken.balanceOf(address(this));\n        require(balanceOfThis >= amount, \"Skyrim: withdrawByJT balanceOfThis < amount\");\n\n        _DAIToken.safeTransferFrom(address(this), msg.sender, amount);\n        _JTToken.burnFrom(_msgSender(), amount);\n    }\n\n    function redeemWithST(uint256 amount) public {\n        // _STInvestPool.redeem(amount);\n        // _STToken.withdraw(amount);\n    }\n\n    function redeemWithJT(uint256 amount) public {\n        // _JTInvestPool.redeem(amount);\n        // _JTToken.withdrawRecord(amount);\n    }\n\n    function getSTInvestReward() public {\n        _STInvestPoolReward.getReward();\n    }\n\n    function getJTInvestReward() public {\n        _JTInvestPoolReward.getReward();\n    }\n\n    function stakeSTAndTRAPairPoolToken(uint256 amount) public {\n\n    }\n\n    function stakeJTAndTRAPairPoolToken(uint256 amount) public {\n\n    }\n\n    function stakeTRAAndDAIPairPoolToken(uint256 amount) public {\n\n    }\n\n    function withdrawSTAndTRALiquidityReward() public {\n\n    }\n\n    function withdrawJTAndTRALiquidityReward() public {\n\n    }\n\n    function withdrawTRAAndDAILiquidityReward() public {\n\n    }\n\n    /**\n        Internals\n     */\n    function _investByST(uint256 amount) internal { \n        // Ensure deposit amount is not more than maximum\n        require(\n            amount >= MaxInvestBySTAmount && amount <= MaxInvestBySTAmount,\n            \"Skyrim: Deposit amount out of range\"\n        );\n\n        _totalInvestByST = _totalInvestByST.add(amount);\n\n        // Record investByST data for `msg.sender`\n        investBySTInfos.push(\n            InvestBySTInfo({\n                amount: amount,\n                active: true,\n                finalSurplusIsNegative: false,\n                finalSurplusAmount: 0,\n                investTimestamp: block.timestamp\n            })\n        );\n\n        _STToken.safeTransferFrom(msg.sender, address(this), amount);\n\n        // Lend `amount` ST and DAI to money market\n        _DAIToken.safeIncreaseAllowance(address(_investMarket), amount);\n        _STToken.safeIncreaseAllowance(address(_investMarket), amount);\n\n        _investMarket.depositWithST(amount);\n\n        uint256 id = investBySTInfos.length;\n        // Emit event\n        emit EInvestByST(\n            msg.sender,\n            id,\n            amount\n        );\n    }\n\n    function _investByJT(uint256 amount) internal { \n        // Ensure deposit amount is not more than maximum\n        require(\n            amount >= MaxInvestByJTAmount && amount <= MaxInvestByJTAmount,\n            \"Skyrim: Deposit amount out of range\"\n        );\n\n        _totalInvestByJT = _totalInvestByJT.add(amount);\n\n        // Record deposit data for `msg.sender`\n        investByJTInfos.push(\n            InvestByJTInfo({\n                amount: amount,\n                active: true,\n                finalSurplusIsNegative: false,\n                finalSurplusAmount: 0,\n                investTimestamp: block.timestamp\n            })\n        );\n\n        _JTToken.safeTransferFrom(msg.sender, address(this), amount);\n\n        // Lend `amount` ST to money market\n        _DAIToken.safeIncreaseAllowance(address(_investMarket), amount);\n        _JTToken.safeIncreaseAllowance(address(_investMarket), amount);\n        \n        _investMarket.depositWithJT(amount);\n\n        uint256 id = investByJTInfos.length;\n        // Emit event\n        emit EInvestByJT(\n            msg.sender,\n            id,\n            amount\n        );\n    }\n\n    function setMinInvestBySTAmount(uint256 amount) public onlyOwner {\n        MinInvestBySTAmount = amount;\n    }\n\n    function setMaxInvestBySTAmount(uint256 amount) public onlyOwner {\n        MaxInvestBySTAmount = amount;\n    }\n\n    function setMinInvestByJTAmount(uint256 amount) public onlyOwner {\n        MinInvestByJTAmount = amount;\n    }\n\n    function setMaxInvestByJTAmount(uint256 amount) public onlyOwner {\n        MaxInvestByJTAmount = amount;\n    }\n}",
  "sourcePath": "/Users/gm/OutsourcingProject/combo-protocol/contracts/Skyrim.sol",
  "compiler": {
    "name": "solc",
    "version": "0.7.6+commit.7338295f.Emscripten.clang"
  },
  "schemaVersion": "3.3.0",
  "updatedAt": "2021-02-26T03:14:51.017Z",
  "devdoc": {
    "kind": "dev",
    "methods": {
      "fundManger()": {
        "details": "Returns the address of the current owner."
      },
      "owner()": {
        "details": "Returns the address of the current owner."
      },
      "renounceOwnership()": {
        "details": "Leaves the contract without owner. It will not be possible to call `onlyOwner` functions anymore. Can only be called by the current owner. NOTE: Renouncing ownership will leave the contract without an owner, thereby removing any functionality that is only available to the owner."
      },
      "transferOwnership(address)": {
        "details": "Transfers ownership of the contract to a new account (`newOwner`). Can only be called by the current owner."
      }
    },
    "version": 1
  },
  "userdoc": {
    "kind": "user",
    "methods": {},
    "version": 1
  }
}