{
  "contractName": "SkyrimInvestMarket",
  "abi": [
    {
      "inputs": [
        {
          "internalType": "address",
          "name": "DAIToken_",
          "type": "address"
        },
        {
          "internalType": "address",
          "name": "SJToken_",
          "type": "address"
        },
        {
          "internalType": "address",
          "name": "JTToken_",
          "type": "address"
        },
        {
          "internalType": "address",
          "name": "TRAToken_",
          "type": "address"
        }
      ],
      "stateMutability": "payable",
      "type": "constructor"
    },
    {
      "anonymous": false,
      "inputs": [
        {
          "indexed": true,
          "internalType": "address",
          "name": "account",
          "type": "address"
        },
        {
          "indexed": false,
          "internalType": "uint256",
          "name": "amount",
          "type": "uint256"
        }
      ],
      "name": "EInvestJT",
      "type": "event"
    },
    {
      "anonymous": false,
      "inputs": [
        {
          "indexed": true,
          "internalType": "address",
          "name": "account",
          "type": "address"
        },
        {
          "indexed": false,
          "internalType": "uint256",
          "name": "amount",
          "type": "uint256"
        }
      ],
      "name": "EInvestST",
      "type": "event"
    },
    {
      "anonymous": false,
      "inputs": [
        {
          "indexed": true,
          "internalType": "address",
          "name": "account",
          "type": "address"
        },
        {
          "indexed": false,
          "internalType": "uint256",
          "name": "amount",
          "type": "uint256"
        }
      ],
      "name": "ERedeemWithJT",
      "type": "event"
    },
    {
      "anonymous": false,
      "inputs": [
        {
          "indexed": true,
          "internalType": "address",
          "name": "account",
          "type": "address"
        },
        {
          "indexed": false,
          "internalType": "uint256",
          "name": "amount",
          "type": "uint256"
        }
      ],
      "name": "ERedeemWithST",
      "type": "event"
    },
    {
      "anonymous": false,
      "inputs": [
        {
          "indexed": true,
          "internalType": "address",
          "name": "previousOwner",
          "type": "address"
        },
        {
          "indexed": true,
          "internalType": "address",
          "name": "newOwner",
          "type": "address"
        }
      ],
      "name": "OwnershipTransferred",
      "type": "event"
    },
    {
      "inputs": [],
      "name": "DAIToken",
      "outputs": [
        {
          "internalType": "contract ERC20",
          "name": "",
          "type": "address"
        }
      ],
      "stateMutability": "view",
      "type": "function"
    },
    {
      "inputs": [
        {
          "internalType": "address",
          "name": "",
          "type": "address"
        }
      ],
      "name": "JTInvestInfoMap",
      "outputs": [
        {
          "internalType": "uint256",
          "name": "amount",
          "type": "uint256"
        },
        {
          "internalType": "uint256",
          "name": "share",
          "type": "uint256"
        }
      ],
      "stateMutability": "view",
      "type": "function"
    },
    {
      "inputs": [],
      "name": "JTOfPerShare",
      "outputs": [
        {
          "internalType": "uint256",
          "name": "",
          "type": "uint256"
        }
      ],
      "stateMutability": "view",
      "type": "function"
    },
    {
      "inputs": [],
      "name": "JTToken",
      "outputs": [
        {
          "internalType": "contract JuniorToken",
          "name": "",
          "type": "address"
        }
      ],
      "stateMutability": "view",
      "type": "function"
    },
    {
      "inputs": [],
      "name": "MaxInvestByJTAmount",
      "outputs": [
        {
          "internalType": "uint256",
          "name": "",
          "type": "uint256"
        }
      ],
      "stateMutability": "view",
      "type": "function"
    },
    {
      "inputs": [],
      "name": "MaxInvestBySTAmount",
      "outputs": [
        {
          "internalType": "uint256",
          "name": "",
          "type": "uint256"
        }
      ],
      "stateMutability": "view",
      "type": "function"
    },
    {
      "inputs": [],
      "name": "MinInvestByJTAmount",
      "outputs": [
        {
          "internalType": "uint256",
          "name": "",
          "type": "uint256"
        }
      ],
      "stateMutability": "view",
      "type": "function"
    },
    {
      "inputs": [],
      "name": "MinInvestBySTAmount",
      "outputs": [
        {
          "internalType": "uint256",
          "name": "",
          "type": "uint256"
        }
      ],
      "stateMutability": "view",
      "type": "function"
    },
    {
      "inputs": [
        {
          "internalType": "address",
          "name": "",
          "type": "address"
        }
      ],
      "name": "STInvestInfoMap",
      "outputs": [
        {
          "internalType": "uint256",
          "name": "amount",
          "type": "uint256"
        },
        {
          "internalType": "uint256",
          "name": "share",
          "type": "uint256"
        }
      ],
      "stateMutability": "view",
      "type": "function"
    },
    {
      "inputs": [],
      "name": "STOfPerShare",
      "outputs": [
        {
          "internalType": "uint256",
          "name": "",
          "type": "uint256"
        }
      ],
      "stateMutability": "view",
      "type": "function"
    },
    {
      "inputs": [],
      "name": "STToken",
      "outputs": [
        {
          "internalType": "contract SeniorToken",
          "name": "",
          "type": "address"
        }
      ],
      "stateMutability": "view",
      "type": "function"
    },
    {
      "inputs": [],
      "name": "TRAToken",
      "outputs": [
        {
          "internalType": "contract SkyrimToken",
          "name": "",
          "type": "address"
        }
      ],
      "stateMutability": "view",
      "type": "function"
    },
    {
      "inputs": [],
      "name": "owner",
      "outputs": [
        {
          "internalType": "address",
          "name": "",
          "type": "address"
        }
      ],
      "stateMutability": "view",
      "type": "function"
    },
    {
      "inputs": [],
      "name": "renounceOwnership",
      "outputs": [],
      "stateMutability": "nonpayable",
      "type": "function"
    },
    {
      "inputs": [],
      "name": "shareOfPerJTToken",
      "outputs": [
        {
          "internalType": "uint256",
          "name": "",
          "type": "uint256"
        }
      ],
      "stateMutability": "view",
      "type": "function"
    },
    {
      "inputs": [],
      "name": "shareOfPerSTToken",
      "outputs": [
        {
          "internalType": "uint256",
          "name": "",
          "type": "uint256"
        }
      ],
      "stateMutability": "view",
      "type": "function"
    },
    {
      "inputs": [],
      "name": "totalInvestByJT",
      "outputs": [
        {
          "internalType": "uint256",
          "name": "",
          "type": "uint256"
        }
      ],
      "stateMutability": "view",
      "type": "function"
    },
    {
      "inputs": [],
      "name": "totalInvestByST",
      "outputs": [
        {
          "internalType": "uint256",
          "name": "",
          "type": "uint256"
        }
      ],
      "stateMutability": "view",
      "type": "function"
    },
    {
      "inputs": [],
      "name": "totalShareOfJT",
      "outputs": [
        {
          "internalType": "uint256",
          "name": "",
          "type": "uint256"
        }
      ],
      "stateMutability": "view",
      "type": "function"
    },
    {
      "inputs": [],
      "name": "totalShareOfST",
      "outputs": [
        {
          "internalType": "uint256",
          "name": "",
          "type": "uint256"
        }
      ],
      "stateMutability": "view",
      "type": "function"
    },
    {
      "inputs": [
        {
          "internalType": "address",
          "name": "newOwner",
          "type": "address"
        }
      ],
      "name": "transferOwnership",
      "outputs": [],
      "stateMutability": "nonpayable",
      "type": "function"
    },
    {
      "inputs": [
        {
          "internalType": "address",
          "name": "account",
          "type": "address"
        },
        {
          "internalType": "uint256",
          "name": "amount",
          "type": "uint256"
        }
      ],
      "name": "investST",
      "outputs": [],
      "stateMutability": "nonpayable",
      "type": "function"
    },
    {
      "inputs": [
        {
          "internalType": "address",
          "name": "account",
          "type": "address"
        },
        {
          "internalType": "uint256",
          "name": "amount",
          "type": "uint256"
        }
      ],
      "name": "investJT",
      "outputs": [],
      "stateMutability": "nonpayable",
      "type": "function"
    },
    {
      "inputs": [
        {
          "internalType": "uint256",
          "name": "amount",
          "type": "uint256"
        }
      ],
      "name": "redeemWithST",
      "outputs": [
        {
          "internalType": "uint256",
          "name": "STActualAmountWithdrawn",
          "type": "uint256"
        },
        {
          "internalType": "uint256",
          "name": "TRAActualAmountWithdrawn",
          "type": "uint256"
        }
      ],
      "stateMutability": "nonpayable",
      "type": "function"
    },
    {
      "inputs": [
        {
          "internalType": "uint256",
          "name": "amount",
          "type": "uint256"
        }
      ],
      "name": "redeemWithJT",
      "outputs": [
        {
          "internalType": "uint256",
          "name": "JTActualAmountWithdrawn",
          "type": "uint256"
        },
        {
          "internalType": "uint256",
          "name": "TRAActualAmountWithdrawn",
          "type": "uint256"
        }
      ],
      "stateMutability": "nonpayable",
      "type": "function"
    },
    {
      "inputs": [],
      "name": "claimRewards",
      "outputs": [],
      "stateMutability": "nonpayable",
      "type": "function"
    },
    {
      "inputs": [
        {
          "internalType": "uint256",
          "name": "amount",
          "type": "uint256"
        }
      ],
      "name": "setMinInvestBySTAmount",
      "outputs": [],
      "stateMutability": "nonpayable",
      "type": "function"
    },
    {
      "inputs": [
        {
          "internalType": "uint256",
          "name": "amount",
          "type": "uint256"
        }
      ],
      "name": "setMaxInvestBySTAmount",
      "outputs": [],
      "stateMutability": "nonpayable",
      "type": "function"
    },
    {
      "inputs": [
        {
          "internalType": "uint256",
          "name": "amount",
          "type": "uint256"
        }
      ],
      "name": "setMinInvestByJTAmount",
      "outputs": [],
      "stateMutability": "nonpayable",
      "type": "function"
    },
    {
      "inputs": [
        {
          "internalType": "uint256",
          "name": "amount",
          "type": "uint256"
        }
      ],
      "name": "setMaxInvestByJTAmount",
      "outputs": [],
      "stateMutability": "nonpayable",
      "type": "function"
    }
  ],
  "bytecode": "0x60806040526040516200258d3803806200258d833981810160405260808110156200002957600080fd5b810190808051906020019092919080519060200190929190805190602001909291908051906020019092919050505060006200006a6200036160201b60201c565b9050806000806101000a81548173ffffffffffffffffffffffffffffffffffffffff021916908373ffffffffffffffffffffffffffffffffffffffff1602179055508073ffffffffffffffffffffffffffffffffffffffff16600073ffffffffffffffffffffffffffffffffffffffff167f8be0079c531659141344cd1fd0a4f28419497f9722a3daafe3b4186f6b6457e060405160405180910390a350620001348473ffffffffffffffffffffffffffffffffffffffff166200036960201b620018ee1760201c565b8015620001695750620001688373ffffffffffffffffffffffffffffffffffffffff166200036960201b620018ee1760201c565b5b80156200019e57506200019d8273ffffffffffffffffffffffffffffffffffffffff166200036960201b620018ee1760201c565b5b620001f5576040517f08c379a0000000000000000000000000000000000000000000000000000000008152600401808060200182810382526038815260200180620025556038913960400191505060405180910390fd5b82600260006101000a81548173ffffffffffffffffffffffffffffffffffffffff021916908373ffffffffffffffffffffffffffffffffffffffff16021790555081600360006101000a81548173ffffffffffffffffffffffffffffffffffffffff021916908373ffffffffffffffffffffffffffffffffffffffff16021790555083600160006101000a81548173ffffffffffffffffffffffffffffffffffffffff021916908373ffffffffffffffffffffffffffffffffffffffff16021790555080600460006101000a81548173ffffffffffffffffffffffffffffffffffffffff021916908373ffffffffffffffffffffffffffffffffffffffff16021790555060006007819055507fffffffffffffffffffffffffffffffffffffffffffffffffffffffffffffffff60088190555060006009819055507fffffffffffffffffffffffffffffffffffffffffffffffffffffffffffffffff600a81905550505050506200037c565b600033905090565b600080823b905060008111915050919050565b6121c9806200038c6000396000f3fe608060405234801561001057600080fd5b50600436106101da5760003560e01c8063715018a611610104578063a214ec07116100a2578063cc37a7c911610071578063cc37a7c914610668578063d4a5344c14610686578063da49082a146106a4578063f2fde38b14610703576101da565b8063a214ec07146105d0578063a99f90dd146105fe578063c11fc5ba1461061c578063c73329991461064a576101da565b806388784aa0116100de57806388784aa0146105075780638b230fe0146105255780638da5cb5b1461056e57806395fe0c1b146105a2576101da565b8063715018a6146104965780638158f2b5146104a057806381f1a4d1146104e9576101da565b8063416cecc11161017c57806354c278391161014b57806354c27839146103f257806360dcfba21461042657806363e45fbd1461045a5780637099f30714610478576101da565b8063416cecc11461033a5780634f0d9f96146103685780635368bb4214610386578063542c0288146103a4576101da565b806326cdc909116101b857806326cdc9091461027f57806333328f71146102b3578063372500ab146102d15780633df674cb146102db576101da565b806309d55ce8146101df578063184b22b81461021357806321a91dec14610261575b600080fd5b6101e7610747565b604051808273ffffffffffffffffffffffffffffffffffffffff16815260200191505060405180910390f35b61025f6004803603604081101561022957600080fd5b81019080803573ffffffffffffffffffffffffffffffffffffffff1690602001909291908035906020019092919050505061076d565b005b6102696109cf565b6040518082815260200191505060405180910390f35b6102876109d5565b604051808273ffffffffffffffffffffffffffffffffffffffff16815260200191505060405180910390f35b6102bb6109fb565b6040518082815260200191505060405180910390f35b6102d9610a01565b005b61031d600480360360208110156102f157600080fd5b81019080803573ffffffffffffffffffffffffffffffffffffffff169060200190929190505050610a03565b604051808381526020018281526020019250505060405180910390f35b6103666004803603602081101561035057600080fd5b8101908080359060200190929190505050610a27565b005b610370610b47565b6040518082815260200191505060405180910390f35b61038e610b4d565b6040518082815260200191505060405180910390f35b6103f0600480360360408110156103ba57600080fd5b81019080803573ffffffffffffffffffffffffffffffffffffffff16906020019092919080359060200190929190505050610b53565b005b6103fa610e04565b604051808273ffffffffffffffffffffffffffffffffffffffff16815260200191505060405180910390f35b61042e610e2a565b604051808273ffffffffffffffffffffffffffffffffffffffff16815260200191505060405180910390f35b610462610e50565b6040518082815260200191505060405180910390f35b610480610e56565b6040518082815260200191505060405180910390f35b61049e610e5c565b005b6104cc600480360360208110156104b657600080fd5b8101908080359060200190929190505050610fc9565b604051808381526020018281526020019250505060405180910390f35b6104f161117a565b6040518082815260200191505060405180910390f35b61050f611180565b6040518082815260200191505060405180910390f35b6105516004803603602081101561053b57600080fd5b8101908080359060200190929190505050611186565b604051808381526020018281526020019250505060405180910390f35b610576611337565b604051808273ffffffffffffffffffffffffffffffffffffffff16815260200191505060405180910390f35b6105ce600480360360208110156105b857600080fd5b8101908080359060200190929190505050611360565b005b6105fc600480360360208110156105e657600080fd5b8101908080359060200190929190505050611480565b005b6106066115a0565b6040518082815260200191505060405180910390f35b6106486004803603602081101561063257600080fd5b81019080803590602001909291905050506115a6565b005b6106526116c6565b6040518082815260200191505060405180910390f35b6106706116cc565b6040518082815260200191505060405180910390f35b61068e6116d2565b6040518082815260200191505060405180910390f35b6106e6600480360360208110156106ba57600080fd5b81019080803573ffffffffffffffffffffffffffffffffffffffff1690602001909291905050506116d8565b604051808381526020018281526020019250505060405180910390f35b6107456004803603602081101561071957600080fd5b81019080803573ffffffffffffffffffffffffffffffffffffffff1690602001909291905050506116fc565b005b600260009054906101000a900473ffffffffffffffffffffffffffffffffffffffff1681565b610775611901565b73ffffffffffffffffffffffffffffffffffffffff16610793611337565b73ffffffffffffffffffffffffffffffffffffffff161461081c576040517f08c379a00000000000000000000000000000000000000000000000000000000081526004018080602001828103825260208152602001807f4f776e61626c653a2063616c6c6572206973206e6f7420746865206f776e657281525060200191505060405180910390fd5b600754811015801561083057506008548111155b610885576040517f08c379a000000000000000000000000000000000000000000000000000000000815260040180806020018281038252602981526020018061208e6029913960400191505060405180910390fd5b6000600560008473ffffffffffffffffffffffffffffffffffffffff1673ffffffffffffffffffffffffffffffffffffffff16815260200190815260200160002090506108df82826000015461190990919063ffffffff16565b8160000181905550610900600f54826000015461199190919063ffffffff16565b816001018190555061091d82600b5461190990919063ffffffff16565b600b8190555061093c8160010154600d5461190990919063ffffffff16565b600d81905550610959600b54600d54611a1790919063ffffffff16565b600f81905550610976600d54600b54611a1790919063ffffffff16565b6011819055508273ffffffffffffffffffffffffffffffffffffffff167f39fe156aa1bf9081614812b7265b5bf0d2a0d81837347d104e0dcbe619f8b465836040518082815260200191505060405180910390a2505050565b60105481565b600160009054906101000a900473ffffffffffffffffffffffffffffffffffffffff1681565b60125481565b565b60066020528060005260406000206000915090508060000154908060010154905082565b610a2f611901565b73ffffffffffffffffffffffffffffffffffffffff16610a4d611337565b73ffffffffffffffffffffffffffffffffffffffff1614610ad6576040517f08c379a00000000000000000000000000000000000000000000000000000000081526004018080602001828103825260208152602001807f4f776e61626c653a2063616c6c6572206973206e6f7420746865206f776e657281525060200191505060405180910390fd5b6009548110158015610ae85750600081115b610b3d576040517f08c379a00000000000000000000000000000000000000000000000000000000081526004018080602001828103825260318152602001806121086031913960400191505060405180910390fd5b80600a8190555050565b600c5481565b600e5481565b610b5b611901565b73ffffffffffffffffffffffffffffffffffffffff16610b79611337565b73ffffffffffffffffffffffffffffffffffffffff1614610c02576040517f08c379a00000000000000000000000000000000000000000000000000000000081526004018080602001828103825260208152602001807f4f776e61626c653a2063616c6c6572206973206e6f7420746865206f776e657281525060200191505060405180910390fd5b6009548110158015610c165750600a548111155b610c6b576040517f08c379a00000000000000000000000000000000000000000000000000000000081526004018080602001828103825260318152602001806121396031913960400191505060405180910390fd5b6000600660008473ffffffffffffffffffffffffffffffffffffffff1673ffffffffffffffffffffffffffffffffffffffff1681526020019081526020016000209050610cc582826000015461190990919063ffffffff16565b8160000181905550610ce6601054826000015461199190919063ffffffff16565b8160010181905550610d0382600c5461190990919063ffffffff16565b600c81905550610d228160010154600e5461190990919063ffffffff16565b600e81905550610d3f600c54600e54611a1790919063ffffffff16565b601081905550610d5c600e54600c54611a1790919063ffffffff16565b601281905550610db1333084600160009054906101000a900473ffffffffffffffffffffffffffffffffffffffff1673ffffffffffffffffffffffffffffffffffffffff16611aa0909392919063ffffffff16565b8273ffffffffffffffffffffffffffffffffffffffff167f8b6830e619b7c23c68da18e7fc26c6579abb7f54c51e9043f4bfe11fd8985829836040518082815260200191505060405180910390a2505050565b600360009054906101000a900473ffffffffffffffffffffffffffffffffffffffff1681565b600460009054906101000a900473ffffffffffffffffffffffffffffffffffffffff1681565b600d5481565b60085481565b610e64611901565b73ffffffffffffffffffffffffffffffffffffffff16610e82611337565b73ffffffffffffffffffffffffffffffffffffffff1614610f0b576040517f08c379a00000000000000000000000000000000000000000000000000000000081526004018080602001828103825260208152602001807f4f776e61626c653a2063616c6c6572206973206e6f7420746865206f776e657281525060200191505060405180910390fd5b600073ffffffffffffffffffffffffffffffffffffffff1660008054906101000a900473ffffffffffffffffffffffffffffffffffffffff1673ffffffffffffffffffffffffffffffffffffffff167f8be0079c531659141344cd1fd0a4f28419497f9722a3daafe3b4186f6b6457e060405160405180910390a360008060006101000a81548173ffffffffffffffffffffffffffffffffffffffff021916908373ffffffffffffffffffffffffffffffffffffffff160217905550565b600080610fd4611901565b73ffffffffffffffffffffffffffffffffffffffff16610ff2611337565b73ffffffffffffffffffffffffffffffffffffffff161461107b576040517f08c379a00000000000000000000000000000000000000000000000000000000081526004018080602001828103825260208152602001807f4f776e61626c653a2063616c6c6572206973206e6f7420746865206f776e657281525060200191505060405180910390fd5b600083116110d4576040517f08c379a00000000000000000000000000000000000000000000000000000000081526004018080602001828103825260308152602001806120386030913960400191505060405180910390fd5b6111213384600460009054906101000a900473ffffffffffffffffffffffffffffffffffffffff1673ffffffffffffffffffffffffffffffffffffffff16611b619092919063ffffffff16565b3373ffffffffffffffffffffffffffffffffffffffff167f49b931931e92b24707280c72b0c6f2571e1854033c58df24e5e73b05de9da5de846040518082815260200191505060405180910390a2828391509150915091565b60095481565b60115481565b600080611191611901565b73ffffffffffffffffffffffffffffffffffffffff166111af611337565b73ffffffffffffffffffffffffffffffffffffffff1614611238576040517f08c379a00000000000000000000000000000000000000000000000000000000081526004018080602001828103825260208152602001807f4f776e61626c653a2063616c6c6572206973206e6f7420746865206f776e657281525060200191505060405180910390fd5b60008311611291576040517f08c379a00000000000000000000000000000000000000000000000000000000081526004018080602001828103825260308152602001806120d86030913960400191505060405180910390fd5b6112de3384600460009054906101000a900473ffffffffffffffffffffffffffffffffffffffff1673ffffffffffffffffffffffffffffffffffffffff16611b619092919063ffffffff16565b3373ffffffffffffffffffffffffffffffffffffffff167f52cf348d38d986b5161637a8eb883c29a932df4de188c7cc6915f9b29aeb2428846040518082815260200191505060405180910390a2828391509150915091565b60008060009054906101000a900473ffffffffffffffffffffffffffffffffffffffff16905090565b611368611901565b73ffffffffffffffffffffffffffffffffffffffff16611386611337565b73ffffffffffffffffffffffffffffffffffffffff161461140f576040517f08c379a00000000000000000000000000000000000000000000000000000000081526004018080602001828103825260208152602001807f4f776e61626c653a2063616c6c6572206973206e6f7420746865206f776e657281525060200191505060405180910390fd5b60085481111580156114215750600081115b611476576040517f08c379a00000000000000000000000000000000000000000000000000000000081526004018080602001828103825260318152602001806120076031913960400191505060405180910390fd5b8060078190555050565b611488611901565b73ffffffffffffffffffffffffffffffffffffffff166114a6611337565b73ffffffffffffffffffffffffffffffffffffffff161461152f576040517f08c379a00000000000000000000000000000000000000000000000000000000081526004018080602001828103825260208152602001807f4f776e61626c653a2063616c6c6572206973206e6f7420746865206f776e657281525060200191505060405180910390fd5b600a5481111580156115415750600081115b611596576040517f08c379a0000000000000000000000000000000000000000000000000000000008152600401808060200182810382526031815260200180611f7f6031913960400191505060405180910390fd5b8060098190555050565b600b5481565b6115ae611901565b73ffffffffffffffffffffffffffffffffffffffff166115cc611337565b73ffffffffffffffffffffffffffffffffffffffff1614611655576040517f08c379a00000000000000000000000000000000000000000000000000000000081526004018080602001828103825260208152602001807f4f776e61626c653a2063616c6c6572206973206e6f7420746865206f776e657281525060200191505060405180910390fd5b60075481101580156116675750600081115b6116bc576040517f08c379a0000000000000000000000000000000000000000000000000000000008152600401808060200182810382526031815260200180611fd66031913960400191505060405180910390fd5b8060088190555050565b600a5481565b60075481565b600f5481565b60056020528060005260406000206000915090508060000154908060010154905082565b611704611901565b73ffffffffffffffffffffffffffffffffffffffff16611722611337565b73ffffffffffffffffffffffffffffffffffffffff16146117ab576040517f08c379a00000000000000000000000000000000000000000000000000000000081526004018080602001828103825260208152602001807f4f776e61626c653a2063616c6c6572206973206e6f7420746865206f776e657281525060200191505060405180910390fd5b600073ffffffffffffffffffffffffffffffffffffffff168173ffffffffffffffffffffffffffffffffffffffff161415611831576040517f08c379a0000000000000000000000000000000000000000000000000000000008152600401808060200182810382526026815260200180611fb06026913960400191505060405180910390fd5b8073ffffffffffffffffffffffffffffffffffffffff1660008054906101000a900473ffffffffffffffffffffffffffffffffffffffff1673ffffffffffffffffffffffffffffffffffffffff167f8be0079c531659141344cd1fd0a4f28419497f9722a3daafe3b4186f6b6457e060405160405180910390a3806000806101000a81548173ffffffffffffffffffffffffffffffffffffffff021916908373ffffffffffffffffffffffffffffffffffffffff16021790555050565b600080823b905060008111915050919050565b600033905090565b600080828401905083811015611987576040517f08c379a000000000000000000000000000000000000000000000000000000000815260040180806020018281038252601b8152602001807f536166654d6174683a206164646974696f6e206f766572666c6f77000000000081525060200191505060405180910390fd5b8091505092915050565b6000808314156119a45760009050611a11565b60008284029050828482816119b557fe5b0414611a0c576040517f08c379a00000000000000000000000000000000000000000000000000000000081526004018080602001828103825260218152602001806120b76021913960400191505060405180910390fd5b809150505b92915050565b6000808211611a8e576040517f08c379a000000000000000000000000000000000000000000000000000000000815260040180806020018281038252601a8152602001807f536166654d6174683a206469766973696f6e206279207a65726f00000000000081525060200191505060405180910390fd5b818381611a9757fe5b04905092915050565b611b5b846323b872dd60e01b858585604051602401808473ffffffffffffffffffffffffffffffffffffffff1681526020018373ffffffffffffffffffffffffffffffffffffffff1681526020018281526020019350505050604051602081830303815290604052907bffffffffffffffffffffffffffffffffffffffffffffffffffffffff19166020820180517bffffffffffffffffffffffffffffffffffffffffffffffffffffffff8381831617835250505050611c03565b50505050565b611bfe8363a9059cbb60e01b8484604051602401808373ffffffffffffffffffffffffffffffffffffffff16815260200182815260200192505050604051602081830303815290604052907bffffffffffffffffffffffffffffffffffffffffffffffffffffffff19166020820180517bffffffffffffffffffffffffffffffffffffffffffffffffffffffff8381831617835250505050611c03565b505050565b6000611c65826040518060400160405280602081526020017f5361666545524332303a206c6f772d6c6576656c2063616c6c206661696c65648152508573ffffffffffffffffffffffffffffffffffffffff16611cf29092919063ffffffff16565b9050600081511115611ced57808060200190516020811015611c8657600080fd5b8101908080519060200190929190505050611cec576040517f08c379a000000000000000000000000000000000000000000000000000000000815260040180806020018281038252602a81526020018061216a602a913960400191505060405180910390fd5b5b505050565b6060611d018484600085611d0a565b90509392505050565b606082471015611d65576040517f08c379a00000000000000000000000000000000000000000000000000000000081526004018080602001828103825260268152602001806120686026913960400191505060405180910390fd5b611d6e856118ee565b611de0576040517f08c379a000000000000000000000000000000000000000000000000000000000815260040180806020018281038252601d8152602001807f416464726573733a2063616c6c20746f206e6f6e2d636f6e747261637400000081525060200191505060405180910390fd5b6000808673ffffffffffffffffffffffffffffffffffffffff1685876040518082805190602001908083835b60208310611e2f5780518252602082019150602081019050602083039250611e0c565b6001836020036101000a03801982511681845116808217855250505050505090500191505060006040518083038185875af1925050503d8060008114611e91576040519150601f19603f3d011682016040523d82523d6000602084013e611e96565b606091505b5091509150611ea6828286611eb2565b92505050949350505050565b60608315611ec257829050611f77565b600083511115611ed55782518084602001fd5b816040517f08c379a00000000000000000000000000000000000000000000000000000000081526004018080602001828103825283818151815260200191508051906020019080838360005b83811015611f3c578082015181840152602081019050611f21565b50505050905090810190601f168015611f695780820380516001836020036101000a031916815260200191505b509250505060405180910390fd5b939250505056fe645452414e434845202d207365744d696e496e7665737442794a54416d6f756e743a20696e76616c696420616d6f756e744f776e61626c653a206e6577206f776e657220697320746865207a65726f2061646472657373645452414e434845202d207365744d6178496e7665737442795354416d6f756e743a20696e76616c696420616d6f756e74645452414e434845202d207365744d696e496e7665737442795354416d6f756e743a20696e76616c696420616d6f756e74645472616e636865496e766573744d61726b6574202d2072656465656d576974684a543a20616d6f756e742069732030416464726573733a20696e73756666696369656e742062616c616e636520666f722063616c6c645452414e4348453a205f696e766573744279535420616d6f756e74206f7574206f662072616e6765536166654d6174683a206d756c7469706c69636174696f6e206f766572666c6f77645472616e636865496e766573744d61726b6574202d2072656465656d5769746853543a20616d6f756e742069732030645452414e434845202d207365744d6178496e7665737442794a54416d6f756e743a20696e76616c696420616d6f756e74645472616e636865496e766573744d61726b65743a204465706f73697420616d6f756e74206f7574206f662072616e67655361666545524332303a204552433230206f7065726174696f6e20646964206e6f742073756363656564a2646970667358221220cf160971e6a794d6d2e8c868e6b74f5107742700c6ffa3d85cdb011248ea06d964736f6c63430007060033645472616e636865496e766573744d61726b65743a20416e20696e7075742061646472657373206973206e6f74206120636f6e7472616374",
  "immutableReferences": {},
  "source": "// SPDX-License-Identifier: MIT\n\npragma solidity >=0.7.0 <0.8.0;\n\nimport \"@openzeppelin/contracts/access/Ownable.sol\";\nimport \"@openzeppelin/contracts/token/ERC20/SafeERC20.sol\";\nimport \"@openzeppelin/contracts/math/SafeMath.sol\";\nimport \"@openzeppelin/contracts/token/ERC20/IERC20.sol\";\nimport \"@openzeppelin/contracts/token/ERC20/ERC20.sol\";\nimport \"./JuniorToken.sol\";\nimport \"./SeniorToken.sol\";\nimport \"./SkyrimToken.sol\";\n\ncontract SkyrimInvestMarket is Ownable {\n    using SafeERC20 for ERC20;\n    using SafeERC20 for JuniorToken;\n    using SafeERC20 for SeniorToken;\n    using SafeERC20 for SkyrimToken;\n\n    using Address for address;\n    using SafeMath for uint256;\n\n    ERC20 public DAIToken;\n    SeniorToken public STToken;\n    JuniorToken public JTToken;\n    SkyrimToken public TRAToken;\n\n    struct STInvestInfo {\n        uint256 amount; \n        uint256 share; \n    }\n    mapping(address => STInvestInfo) public STInvestInfoMap;\n\n    struct JTInvestInfo {\n        uint256 amount;\n        uint256 share;\n    }\n    mapping(address => JTInvestInfo) public JTInvestInfoMap;\n\n    uint256 public MinInvestBySTAmount; \n    uint256 public MaxInvestBySTAmount; \n\n    uint256 public MinInvestByJTAmount; \n    uint256 public MaxInvestByJTAmount; \n\n    uint256 public totalInvestByST; \n    uint256 public totalInvestByJT; \n\n    uint256 public totalShareOfST;\n    uint256 public totalShareOfJT;\n\n    uint256 public shareOfPerSTToken;\n    uint256 public shareOfPerJTToken;\n\n    uint256 public STOfPerShare;\n    uint256 public JTOfPerShare;\n\n\n    // tokenRate =  totalShareOfST / totalInvestByST;\n    // shareOfUser = token * tokenRate\n    // shareRate = totalInvestByST / totalShareOfST;\n    // tokenAmountOfUser = shareOfUser * shareRate\n\n    // EVENT\n    event EInvestST(address indexed account, uint256 amount);\n    event EInvestJT(address indexed account, uint256 amount);\n    event ERedeemWithST(address indexed account, uint256 amount);\n    event ERedeemWithJT(address indexed account, uint256 amount);\n\n    constructor(address DAIToken_, address SJToken_, address JTToken_, address TRAToken_) payable {\n        // Verify input addresses\n        require(DAIToken_.isContract() && SJToken_.isContract() && JTToken_.isContract(), \"SkyrimInvestMarket: An input address is not a contract\");\n        STToken = SeniorToken(SJToken_);\n        JTToken = JuniorToken(JTToken_);\n        DAIToken = ERC20(DAIToken_);\n        TRAToken = SkyrimToken(TRAToken_);\n\n        MinInvestBySTAmount = 0;\n        MaxInvestBySTAmount = 2**256 - 1;\n\n        MinInvestByJTAmount = 0;\n        MaxInvestByJTAmount = 2**256 - 1;\n    }\n\n    function investST(address account, uint256 amount) external onlyOwner {\n        require(\n            amount >= MinInvestBySTAmount && amount <= MaxInvestBySTAmount,\n            \"Skyrim: _investByST amount out of range\"\n        );\n\n        STInvestInfo storage userInvestInfo = STInvestInfoMap[account];\n\n        userInvestInfo.amount = userInvestInfo.amount.add(amount);\n        userInvestInfo.share = userInvestInfo.amount.mul(shareOfPerSTToken);\n\n        totalInvestByST = totalInvestByST.add(amount);\n        totalShareOfST = totalShareOfST.add(userInvestInfo.share);\n\n        shareOfPerSTToken = totalShareOfST.div(totalInvestByST);\n        STOfPerShare = totalInvestByST.div(totalShareOfST);\n\n        emit EInvestST(account, amount);\n    }\n    \n    function investJT(address account, uint256 amount) external onlyOwner {\n        require(\n            amount >= MinInvestByJTAmount && amount <= MaxInvestByJTAmount,\n            \"SkyrimInvestMarket: Deposit amount out of range\"\n        );\n\n        JTInvestInfo storage userInvestInfo = JTInvestInfoMap[account];\n\n        userInvestInfo.amount = userInvestInfo.amount.add(amount);\n        userInvestInfo.share = userInvestInfo.amount.mul(shareOfPerJTToken);\n\n        totalInvestByJT = totalInvestByJT.add(amount);\n        totalShareOfJT = totalShareOfJT.add(userInvestInfo.share);\n\n        shareOfPerJTToken = totalShareOfJT.div(totalInvestByJT);\n        JTOfPerShare = totalInvestByJT.div(totalShareOfJT);\n\n        DAIToken.safeTransferFrom(msg.sender, address(this), amount);\n\n        emit EInvestJT(account, amount);\n    }\n\n    function redeemWithST(uint256 amount)\n        external\n        onlyOwner\n        returns (uint256 STActualAmountWithdrawn, uint256 TRAActualAmountWithdrawn)\n    {\n        require(\n            amount > 0,\n            \"SkyrimInvestMarket - redeemWithST: amount is 0\"\n        );\n\n\n        TRAToken.safeTransfer(msg.sender, amount);\n\n        emit ERedeemWithST(msg.sender, amount);\n\n        return (amount, amount);\n    }\n\n    function redeemWithJT(uint256 amount)\n        external\n        onlyOwner\n        returns (uint256 JTActualAmountWithdrawn, uint256 TRAActualAmountWithdrawn)\n    {\n        require(\n            amount > 0,\n            \"SkyrimInvestMarket - redeemWithJT: amount is 0\"\n        );\n\n        TRAToken.safeTransfer(msg.sender, amount);\n\n        emit ERedeemWithJT(msg.sender, amount);\n\n        return (amount, amount);\n    }\n\n    function claimRewards() external {\n        // comptroller.claimComp(address(this));\n        // ERC20 comp = ERC20(comptroller.getCompAddress());\n        // comp.safeTransfer(rewards, comp.balanceOf(address(this)));\n    }\n\n    function setMinInvestBySTAmount(uint256 amount) public onlyOwner {\n        require(amount <= MaxInvestBySTAmount && amount > 0, \"Skyrim - setMinInvestBySTAmount: invalid amount\");\n        \n        MinInvestBySTAmount = amount;\n    }\n\n    function setMaxInvestBySTAmount(uint256 amount) public onlyOwner {\n        require(amount >= MinInvestBySTAmount && amount > 0, \"Skyrim - setMaxInvestBySTAmount: invalid amount\");\n\n        MaxInvestBySTAmount = amount;\n    }\n\n    function setMinInvestByJTAmount(uint256 amount) public onlyOwner {\n        require(amount <= MaxInvestByJTAmount && amount > 0, \"Skyrim - setMinInvestByJTAmount: invalid amount\");\n\n        MinInvestByJTAmount = amount;\n    }\n\n    function setMaxInvestByJTAmount(uint256 amount) public onlyOwner {\n        require(amount >= MinInvestByJTAmount && amount > 0, \"Skyrim - setMaxInvestByJTAmount: invalid amount\");\n\n        MaxInvestByJTAmount = amount;\n    }\n}",
  "sourcePath": "/Users/caos/workspace/develop/temp/protocol/contracts/SkyrimInvestMarket.sol",
  "compiler": {
    "name": "solc",
    "version": "0.7.6+commit.7338295f.Emscripten.clang"
  },
  "schemaVersion": "3.2.5",
  "updatedAt": "2021-03-06T09:37:41.964Z",
  "devdoc": {
    "kind": "dev",
    "methods": {
      "owner()": {
        "details": "Returns the address of the current owner."
      },
      "renounceOwnership()": {
        "details": "Leaves the contract without owner. It will not be possible to call `onlyOwner` functions anymore. Can only be called by the current owner. NOTE: Renouncing ownership will leave the contract without an owner, thereby removing any functionality that is only available to the owner."
      },
      "transferOwnership(address)": {
        "details": "Transfers ownership of the contract to a new account (`newOwner`). Can only be called by the current owner."
      }
    },
    "version": 1
  },
  "userdoc": {
    "kind": "user",
    "methods": {},
    "version": 1
  }
}