{
  "_format": "hh-sol-artifact-1",
  "contractName": "SkyrimInvestVault",
  "sourceName": "contracts/SkyrimInvestVault.sol",
  "abi": [
    {
      "anonymous": false,
      "inputs": [
        {
          "indexed": false,
          "internalType": "enum SkyrimInvestVaultStorage.TokenType",
          "name": "tokenType",
          "type": "uint8"
        },
        {
          "indexed": false,
          "internalType": "address",
          "name": "from",
          "type": "address"
        },
        {
          "indexed": false,
          "internalType": "address",
          "name": "to",
          "type": "address"
        },
        {
          "indexed": false,
          "internalType": "uint256",
          "name": "amount",
          "type": "uint256"
        }
      ],
      "name": "Invest",
      "type": "event"
    },
    {
      "anonymous": false,
      "inputs": [
        {
          "indexed": false,
          "internalType": "uint256",
          "name": "period",
          "type": "uint256"
        },
        {
          "indexed": false,
          "internalType": "enum SkyrimInvestVaultStorage.TokenType",
          "name": "tokenType",
          "type": "uint8"
        },
        {
          "indexed": false,
          "internalType": "uint256",
          "name": "investment",
          "type": "uint256"
        }
      ],
      "name": "InvestByOwner",
      "type": "event"
    },
    {
      "anonymous": false,
      "inputs": [
        {
          "indexed": false,
          "internalType": "enum SkyrimInvestVaultStorage.TokenType",
          "name": "tokenType",
          "type": "uint8"
        },
        {
          "indexed": false,
          "internalType": "uint256",
          "name": "apy",
          "type": "uint256"
        }
      ],
      "name": "NewAPYSet",
      "type": "event"
    },
    {
      "anonymous": false,
      "inputs": [
        {
          "indexed": true,
          "internalType": "contract IJuniorToken",
          "name": "oldJTToken",
          "type": "address"
        },
        {
          "indexed": true,
          "internalType": "contract IJuniorToken",
          "name": "newJTToken",
          "type": "address"
        }
      ],
      "name": "NewJTToken",
      "type": "event"
    },
    {
      "anonymous": false,
      "inputs": [
        {
          "indexed": true,
          "internalType": "address",
          "name": "oldOwner",
          "type": "address"
        },
        {
          "indexed": true,
          "internalType": "address",
          "name": "newOwner",
          "type": "address"
        }
      ],
      "name": "NewOwner",
      "type": "event"
    },
    {
      "anonymous": false,
      "inputs": [
        {
          "indexed": true,
          "internalType": "address",
          "name": "oldPendingOwner",
          "type": "address"
        },
        {
          "indexed": true,
          "internalType": "address",
          "name": "newPendingOwner",
          "type": "address"
        }
      ],
      "name": "NewPendingOwner",
      "type": "event"
    },
    {
      "anonymous": false,
      "inputs": [
        {
          "indexed": true,
          "internalType": "contract ISeniorToken",
          "name": "oldSTToken",
          "type": "address"
        },
        {
          "indexed": true,
          "internalType": "contract ISeniorToken",
          "name": "newSTToken",
          "type": "address"
        }
      ],
      "name": "NewSTToken",
      "type": "event"
    },
    {
      "anonymous": false,
      "inputs": [
        {
          "indexed": true,
          "internalType": "contract ISkyrimToken",
          "name": "oldSkyrimToken",
          "type": "address"
        },
        {
          "indexed": true,
          "internalType": "contract ISkyrimToken",
          "name": "newSkyrimToken",
          "type": "address"
        }
      ],
      "name": "NewSkyrimToken",
      "type": "event"
    },
    {
      "anonymous": false,
      "inputs": [
        {
          "indexed": true,
          "internalType": "uint256",
          "name": "oldStartTime",
          "type": "uint256"
        },
        {
          "indexed": true,
          "internalType": "uint256",
          "name": "newStartTime",
          "type": "uint256"
        }
      ],
      "name": "NewStartTime",
      "type": "event"
    },
    {
      "anonymous": false,
      "inputs": [
        {
          "indexed": false,
          "internalType": "enum SkyrimInvestVaultStorage.TokenType",
          "name": "tokenType",
          "type": "uint8"
        },
        {
          "indexed": false,
          "internalType": "uint256",
          "name": "oldSupplyRate",
          "type": "uint256"
        },
        {
          "indexed": false,
          "internalType": "uint256",
          "name": "newSupplyRate",
          "type": "uint256"
        }
      ],
      "name": "NewSupplyRate",
      "type": "event"
    },
    {
      "anonymous": false,
      "inputs": [
        {
          "indexed": false,
          "internalType": "enum SkyrimInvestVaultStorage.TokenType",
          "name": "tokenType",
          "type": "uint8"
        },
        {
          "indexed": false,
          "internalType": "address",
          "name": "from",
          "type": "address"
        },
        {
          "indexed": false,
          "internalType": "uint256",
          "name": "investedShareAmount",
          "type": "uint256"
        },
        {
          "indexed": false,
          "internalType": "uint256",
          "name": "investedAmount",
          "type": "uint256"
        }
      ],
      "name": "RedeemInvestedToken",
      "type": "event"
    },
    {
      "anonymous": false,
      "inputs": [
        {
          "indexed": false,
          "internalType": "enum SkyrimInvestVaultStorage.TokenType",
          "name": "tokenType",
          "type": "uint8"
        },
        {
          "indexed": false,
          "internalType": "address",
          "name": "to",
          "type": "address"
        },
        {
          "indexed": false,
          "internalType": "uint256",
          "name": "amount",
          "type": "uint256"
        }
      ],
      "name": "RewardRepaid",
      "type": "event"
    },
    {
      "anonymous": false,
      "inputs": [
        {
          "indexed": false,
          "internalType": "uint256",
          "name": "period",
          "type": "uint256"
        },
        {
          "indexed": false,
          "internalType": "enum SkyrimInvestVaultStorage.TokenType",
          "name": "tokenType",
          "type": "uint8"
        },
        {
          "indexed": false,
          "internalType": "uint256",
          "name": "profit",
          "type": "uint256"
        },
        {
          "indexed": false,
          "internalType": "uint256",
          "name": "loss",
          "type": "uint256"
        }
      ],
      "name": "SettleProfits",
      "type": "event"
    },
    {
      "inputs": [],
      "name": "APYRatio",
      "outputs": [
        {
          "internalType": "uint256",
          "name": "",
          "type": "uint256"
        }
      ],
      "stateMutability": "view",
      "type": "function"
    },
    {
      "inputs": [
        {
          "internalType": "enum SkyrimInvestVaultStorage.TokenType",
          "name": "",
          "type": "uint8"
        }
      ],
      "name": "APYs",
      "outputs": [
        {
          "internalType": "uint256",
          "name": "",
          "type": "uint256"
        }
      ],
      "stateMutability": "view",
      "type": "function"
    },
    {
      "inputs": [],
      "name": "BASE",
      "outputs": [
        {
          "internalType": "uint256",
          "name": "",
          "type": "uint256"
        }
      ],
      "stateMutability": "view",
      "type": "function"
    },
    {
      "inputs": [
        {
          "internalType": "uint256",
          "name": "",
          "type": "uint256"
        }
      ],
      "name": "JTSupplyRatesPerPeriod",
      "outputs": [
        {
          "internalType": "uint256",
          "name": "",
          "type": "uint256"
        }
      ],
      "stateMutability": "view",
      "type": "function"
    },
    {
      "inputs": [],
      "name": "JTToken",
      "outputs": [
        {
          "internalType": "contract IJuniorToken",
          "name": "",
          "type": "address"
        }
      ],
      "stateMutability": "view",
      "type": "function"
    },
    {
      "inputs": [],
      "name": "STToken",
      "outputs": [
        {
          "internalType": "contract ISeniorToken",
          "name": "",
          "type": "address"
        }
      ],
      "stateMutability": "view",
      "type": "function"
    },
    {
      "inputs": [],
      "name": "SkyrimToken",
      "outputs": [
        {
          "internalType": "contract ISkyrimToken",
          "name": "",
          "type": "address"
        }
      ],
      "stateMutability": "view",
      "type": "function"
    },
    {
      "inputs": [
        {
          "internalType": "enum SkyrimInvestVaultStorage.TokenType",
          "name": "",
          "type": "uint8"
        },
        {
          "internalType": "uint256",
          "name": "",
          "type": "uint256"
        }
      ],
      "name": "TRAPricePerPeriod",
      "outputs": [
        {
          "internalType": "uint256",
          "name": "",
          "type": "uint256"
        }
      ],
      "stateMutability": "view",
      "type": "function"
    },
    {
      "inputs": [],
      "name": "_acceptOwner",
      "outputs": [],
      "stateMutability": "nonpayable",
      "type": "function"
    },
    {
      "inputs": [
        {
          "internalType": "address payable",
          "name": "newPendingOwner",
          "type": "address"
        }
      ],
      "name": "_setPendingOwner",
      "outputs": [],
      "stateMutability": "nonpayable",
      "type": "function"
    },
    {
      "inputs": [
        {
          "internalType": "enum SkyrimInvestVaultStorage.TokenType",
          "name": "",
          "type": "uint8"
        },
        {
          "internalType": "address",
          "name": "",
          "type": "address"
        }
      ],
      "name": "accountInvestments",
      "outputs": [
        {
          "internalType": "uint256",
          "name": "unlockedShareBalance",
          "type": "uint256"
        },
        {
          "internalType": "uint256",
          "name": "pendingShareBalance",
          "type": "uint256"
        },
        {
          "internalType": "uint256",
          "name": "TRAPricePeriod",
          "type": "uint256"
        },
        {
          "internalType": "uint256",
          "name": "lockedShareBalance",
          "type": "uint256"
        },
        {
          "internalType": "uint256",
          "name": "pendingSharePeriod",
          "type": "uint256"
        },
        {
          "internalType": "uint256",
          "name": "lockedSharePeriod",
          "type": "uint256"
        },
        {
          "internalType": "uint256",
          "name": "pendingInvestAmount",
          "type": "uint256"
        },
        {
          "internalType": "uint256",
          "name": "totalInvestAmount",
          "type": "uint256"
        },
        {
          "internalType": "uint256",
          "name": "TRARewards",
          "type": "uint256"
        },
        {
          "internalType": "uint256",
          "name": "burnedTimes",
          "type": "uint256"
        }
      ],
      "stateMutability": "view",
      "type": "function"
    },
    {
      "inputs": [
        {
          "internalType": "enum SkyrimInvestVaultStorage.TokenType",
          "name": "",
          "type": "uint8"
        },
        {
          "internalType": "uint256",
          "name": "",
          "type": "uint256"
        }
      ],
      "name": "burnedTRARate",
      "outputs": [
        {
          "internalType": "uint256",
          "name": "",
          "type": "uint256"
        }
      ],
      "stateMutability": "view",
      "type": "function"
    },
    {
      "inputs": [
        {
          "internalType": "enum SkyrimInvestVaultStorage.TokenType",
          "name": "",
          "type": "uint8"
        }
      ],
      "name": "burnedTimes",
      "outputs": [
        {
          "internalType": "uint256",
          "name": "",
          "type": "uint256"
        }
      ],
      "stateMutability": "view",
      "type": "function"
    },
    {
      "inputs": [
        {
          "internalType": "enum SkyrimInvestVaultStorage.TokenType",
          "name": "tokenType",
          "type": "uint8"
        }
      ],
      "name": "exit",
      "outputs": [],
      "stateMutability": "nonpayable",
      "type": "function"
    },
    {
      "inputs": [
        {
          "internalType": "enum SkyrimInvestVaultStorage.TokenType",
          "name": "_tokenType",
          "type": "uint8"
        }
      ],
      "name": "getAPY",
      "outputs": [
        {
          "internalType": "uint256",
          "name": "",
          "type": "uint256"
        }
      ],
      "stateMutability": "view",
      "type": "function"
    },
    {
      "inputs": [
        {
          "internalType": "enum SkyrimInvestVaultStorage.TokenType",
          "name": "tokenType",
          "type": "uint8"
        },
        {
          "internalType": "address",
          "name": "who",
          "type": "address"
        }
      ],
      "name": "getAccruedTRARewards",
      "outputs": [
        {
          "internalType": "uint256",
          "name": "rewards",
          "type": "uint256"
        }
      ],
      "stateMutability": "view",
      "type": "function"
    },
    {
      "inputs": [
        {
          "internalType": "enum SkyrimInvestVaultStorage.TokenType",
          "name": "_tokenType",
          "type": "uint8"
        }
      ],
      "name": "getCurrentInvestmentPriceByToken",
      "outputs": [
        {
          "internalType": "uint256",
          "name": "",
          "type": "uint256"
        }
      ],
      "stateMutability": "view",
      "type": "function"
    },
    {
      "inputs": [],
      "name": "getCurrentInvestmentPriceForJT",
      "outputs": [
        {
          "internalType": "uint256",
          "name": "",
          "type": "uint256"
        }
      ],
      "stateMutability": "view",
      "type": "function"
    },
    {
      "inputs": [],
      "name": "getCurrentInvestmentPriceForST",
      "outputs": [
        {
          "internalType": "uint256",
          "name": "",
          "type": "uint256"
        }
      ],
      "stateMutability": "view",
      "type": "function"
    },
    {
      "inputs": [],
      "name": "getCurrentPeriod",
      "outputs": [
        {
          "internalType": "uint256",
          "name": "",
          "type": "uint256"
        }
      ],
      "stateMutability": "view",
      "type": "function"
    },
    {
      "inputs": [],
      "name": "getLatestSettlementPeriod",
      "outputs": [
        {
          "internalType": "uint256",
          "name": "",
          "type": "uint256"
        }
      ],
      "stateMutability": "view",
      "type": "function"
    },
    {
      "inputs": [
        {
          "internalType": "enum SkyrimInvestVaultStorage.TokenType",
          "name": "tokenType",
          "type": "uint8"
        },
        {
          "internalType": "address",
          "name": "who",
          "type": "address"
        }
      ],
      "name": "getTotalInvestmentAmount",
      "outputs": [
        {
          "internalType": "uint256",
          "name": "validInvestmentAmount",
          "type": "uint256"
        }
      ],
      "stateMutability": "view",
      "type": "function"
    },
    {
      "inputs": [
        {
          "internalType": "enum SkyrimInvestVaultStorage.TokenType",
          "name": "tokenType",
          "type": "uint8"
        },
        {
          "internalType": "address",
          "name": "who",
          "type": "address"
        }
      ],
      "name": "getTotalInvestmentShareAmount",
      "outputs": [
        {
          "internalType": "uint256",
          "name": "validInvestmentAmount",
          "type": "uint256"
        }
      ],
      "stateMutability": "view",
      "type": "function"
    },
    {
      "inputs": [
        {
          "internalType": "enum SkyrimInvestVaultStorage.TokenType",
          "name": "tokenType",
          "type": "uint8"
        },
        {
          "internalType": "address",
          "name": "who",
          "type": "address"
        }
      ],
      "name": "getUserPeriodsAfterInvestment",
      "outputs": [
        {
          "internalType": "uint256",
          "name": "",
          "type": "uint256"
        }
      ],
      "stateMutability": "view",
      "type": "function"
    },
    {
      "inputs": [
        {
          "internalType": "enum SkyrimInvestVaultStorage.TokenType",
          "name": "tokenType",
          "type": "uint8"
        },
        {
          "internalType": "address",
          "name": "who",
          "type": "address"
        }
      ],
      "name": "getUserTotalTRARewards",
      "outputs": [
        {
          "internalType": "uint256",
          "name": "rewards",
          "type": "uint256"
        }
      ],
      "stateMutability": "view",
      "type": "function"
    },
    {
      "inputs": [
        {
          "internalType": "enum SkyrimInvestVaultStorage.TokenType",
          "name": "tokenType",
          "type": "uint8"
        },
        {
          "internalType": "address",
          "name": "who",
          "type": "address"
        }
      ],
      "name": "getUserValidLockedShareAmount",
      "outputs": [
        {
          "internalType": "uint256",
          "name": "validShareAmount",
          "type": "uint256"
        }
      ],
      "stateMutability": "view",
      "type": "function"
    },
    {
      "inputs": [
        {
          "internalType": "enum SkyrimInvestVaultStorage.TokenType",
          "name": "tokenType",
          "type": "uint8"
        },
        {
          "internalType": "address",
          "name": "who",
          "type": "address"
        }
      ],
      "name": "getUserValidPendingShareAmount",
      "outputs": [
        {
          "internalType": "uint256",
          "name": "",
          "type": "uint256"
        }
      ],
      "stateMutability": "view",
      "type": "function"
    },
    {
      "inputs": [
        {
          "internalType": "enum SkyrimInvestVaultStorage.TokenType",
          "name": "tokenType",
          "type": "uint8"
        },
        {
          "internalType": "address",
          "name": "who",
          "type": "address"
        }
      ],
      "name": "getUserValidUnlockShareAmount",
      "outputs": [
        {
          "internalType": "uint256",
          "name": "validShareAmount",
          "type": "uint256"
        }
      ],
      "stateMutability": "view",
      "type": "function"
    },
    {
      "inputs": [
        {
          "internalType": "enum SkyrimInvestVaultStorage.TokenType",
          "name": "tokenType",
          "type": "uint8"
        },
        {
          "internalType": "address",
          "name": "who",
          "type": "address"
        }
      ],
      "name": "getValidInvestmentAmount",
      "outputs": [
        {
          "internalType": "uint256",
          "name": "validInvestmentAmount",
          "type": "uint256"
        }
      ],
      "stateMutability": "view",
      "type": "function"
    },
    {
      "inputs": [
        {
          "internalType": "enum SkyrimInvestVaultStorage.TokenType",
          "name": "tokenType",
          "type": "uint8"
        },
        {
          "internalType": "address",
          "name": "who",
          "type": "address"
        }
      ],
      "name": "getValidInvestmentShareAmount",
      "outputs": [
        {
          "internalType": "uint256",
          "name": "",
          "type": "uint256"
        }
      ],
      "stateMutability": "view",
      "type": "function"
    },
    {
      "inputs": [],
      "name": "harvestAllTRARewards",
      "outputs": [],
      "stateMutability": "nonpayable",
      "type": "function"
    },
    {
      "inputs": [
        {
          "internalType": "enum SkyrimInvestVaultStorage.TokenType",
          "name": "tokenType",
          "type": "uint8"
        }
      ],
      "name": "harvestTRARewards",
      "outputs": [],
      "stateMutability": "nonpayable",
      "type": "function"
    },
    {
      "inputs": [
        {
          "internalType": "enum SkyrimInvestVaultStorage.TokenType",
          "name": "tokenType",
          "type": "uint8"
        },
        {
          "internalType": "address",
          "name": "who",
          "type": "address"
        }
      ],
      "name": "hasBurnedAll",
      "outputs": [
        {
          "internalType": "bool",
          "name": "burnedAll",
          "type": "bool"
        }
      ],
      "stateMutability": "view",
      "type": "function"
    },
    {
      "inputs": [
        {
          "internalType": "uint256",
          "name": "investStartTime",
          "type": "uint256"
        },
        {
          "internalType": "contract ISeniorToken",
          "name": "newSTToken",
          "type": "address"
        },
        {
          "internalType": "contract IJuniorToken",
          "name": "newJTToken",
          "type": "address"
        },
        {
          "internalType": "contract ISkyrimToken",
          "name": "newSkyrimToken",
          "type": "address"
        },
        {
          "internalType": "contract IERC20Upgradeable",
          "name": "newInvestedToken",
          "type": "address"
        }
      ],
      "name": "initialize",
      "outputs": [],
      "stateMutability": "nonpayable",
      "type": "function"
    },
    {
      "inputs": [
        {
          "internalType": "address",
          "name": "who",
          "type": "address"
        }
      ],
      "name": "investAmountByJT",
      "outputs": [
        {
          "internalType": "uint256",
          "name": "JTInvestedAmount",
          "type": "uint256"
        }
      ],
      "stateMutability": "view",
      "type": "function"
    },
    {
      "inputs": [
        {
          "internalType": "address",
          "name": "who",
          "type": "address"
        }
      ],
      "name": "investAmountByST",
      "outputs": [
        {
          "internalType": "uint256",
          "name": "STInvestedAmount",
          "type": "uint256"
        }
      ],
      "stateMutability": "view",
      "type": "function"
    },
    {
      "inputs": [
        {
          "internalType": "address",
          "name": "recipient",
          "type": "address"
        },
        {
          "internalType": "uint256",
          "name": "amount",
          "type": "uint256"
        }
      ],
      "name": "investJT",
      "outputs": [],
      "stateMutability": "nonpayable",
      "type": "function"
    },
    {
      "inputs": [
        {
          "internalType": "address",
          "name": "recipient",
          "type": "address"
        },
        {
          "internalType": "uint256",
          "name": "amount",
          "type": "uint256"
        }
      ],
      "name": "investST",
      "outputs": [],
      "stateMutability": "nonpayable",
      "type": "function"
    },
    {
      "inputs": [],
      "name": "investedToken",
      "outputs": [
        {
          "internalType": "contract IERC20Upgradeable",
          "name": "",
          "type": "address"
        }
      ],
      "stateMutability": "view",
      "type": "function"
    },
    {
      "inputs": [
        {
          "internalType": "enum SkyrimInvestVaultStorage.TokenType",
          "name": "",
          "type": "uint8"
        },
        {
          "internalType": "uint256",
          "name": "",
          "type": "uint256"
        }
      ],
      "name": "investmentPricePerPeriod",
      "outputs": [
        {
          "internalType": "uint256",
          "name": "",
          "type": "uint256"
        }
      ],
      "stateMutability": "view",
      "type": "function"
    },
    {
      "inputs": [],
      "name": "isSkyrimVault",
      "outputs": [
        {
          "internalType": "bool",
          "name": "",
          "type": "bool"
        }
      ],
      "stateMutability": "pure",
      "type": "function"
    },
    {
      "inputs": [],
      "name": "owner",
      "outputs": [
        {
          "internalType": "address payable",
          "name": "",
          "type": "address"
        }
      ],
      "stateMutability": "view",
      "type": "function"
    },
    {
      "inputs": [],
      "name": "pendingOwner",
      "outputs": [
        {
          "internalType": "address payable",
          "name": "",
          "type": "address"
        }
      ],
      "stateMutability": "view",
      "type": "function"
    },
    {
      "inputs": [
        {
          "internalType": "enum SkyrimInvestVaultStorage.TokenType",
          "name": "tokenType",
          "type": "uint8"
        },
        {
          "internalType": "uint256",
          "name": "reddemInvestmeTokenAmount",
          "type": "uint256"
        }
      ],
      "name": "redeemInvestment",
      "outputs": [],
      "stateMutability": "nonpayable",
      "type": "function"
    },
    {
      "inputs": [
        {
          "internalType": "enum SkyrimInvestVaultStorage.TokenType",
          "name": "tokenType",
          "type": "uint8"
        },
        {
          "internalType": "uint256",
          "name": "redeemShareTokenAmount",
          "type": "uint256"
        }
      ],
      "name": "redeemInvestmentByShareToken",
      "outputs": [],
      "stateMutability": "nonpayable",
      "type": "function"
    },
    {
      "inputs": [],
      "name": "seniorTokenSupplyRate",
      "outputs": [
        {
          "internalType": "uint256",
          "name": "",
          "type": "uint256"
        }
      ],
      "stateMutability": "view",
      "type": "function"
    },
    {
      "inputs": [
        {
          "internalType": "enum SkyrimInvestVaultStorage.TokenType",
          "name": "tokenType",
          "type": "uint8"
        },
        {
          "internalType": "address",
          "name": "who",
          "type": "address"
        }
      ],
      "name": "shouldUnlockAllUserShares",
      "outputs": [
        {
          "internalType": "bool",
          "name": "",
          "type": "bool"
        }
      ],
      "stateMutability": "view",
      "type": "function"
    },
    {
      "inputs": [
        {
          "internalType": "enum SkyrimInvestVaultStorage.TokenType",
          "name": "tokenType",
          "type": "uint8"
        },
        {
          "internalType": "address",
          "name": "who",
          "type": "address"
        }
      ],
      "name": "shouldUnlockNoneShares",
      "outputs": [
        {
          "internalType": "bool",
          "name": "",
          "type": "bool"
        }
      ],
      "stateMutability": "view",
      "type": "function"
    },
    {
      "inputs": [
        {
          "internalType": "enum SkyrimInvestVaultStorage.TokenType",
          "name": "tokenType",
          "type": "uint8"
        },
        {
          "internalType": "address",
          "name": "who",
          "type": "address"
        }
      ],
      "name": "shouldUnlockUserLockedShares",
      "outputs": [
        {
          "internalType": "bool",
          "name": "",
          "type": "bool"
        }
      ],
      "stateMutability": "view",
      "type": "function"
    },
    {
      "inputs": [],
      "name": "startTime",
      "outputs": [
        {
          "internalType": "uint256",
          "name": "",
          "type": "uint256"
        }
      ],
      "stateMutability": "view",
      "type": "function"
    },
    {
      "inputs": [],
      "name": "totalInvest",
      "outputs": [
        {
          "internalType": "uint256",
          "name": "total",
          "type": "uint256"
        }
      ],
      "stateMutability": "view",
      "type": "function"
    },
    {
      "inputs": [],
      "name": "totalInvestByJT",
      "outputs": [
        {
          "internalType": "uint256",
          "name": "totalJTInvestedAmount",
          "type": "uint256"
        }
      ],
      "stateMutability": "view",
      "type": "function"
    },
    {
      "inputs": [],
      "name": "totalInvestByST",
      "outputs": [
        {
          "internalType": "uint256",
          "name": "totalSTInvestedAmount",
          "type": "uint256"
        }
      ],
      "stateMutability": "view",
      "type": "function"
    },
    {
      "inputs": [
        {
          "internalType": "enum SkyrimInvestVaultStorage.TokenType",
          "name": "",
          "type": "uint8"
        }
      ],
      "name": "totalInvestmentsInfo",
      "outputs": [
        {
          "internalType": "uint256",
          "name": "pendingInvestment",
          "type": "uint256"
        },
        {
          "internalType": "uint256",
          "name": "lockedInvestment",
          "type": "uint256"
        },
        {
          "internalType": "uint256",
          "name": "unlockedInvestment",
          "type": "uint256"
        },
        {
          "internalType": "uint256",
          "name": "totalShare",
          "type": "uint256"
        },
        {
          "internalType": "uint256",
          "name": "totalInvestmentByUsers",
          "type": "uint256"
        }
      ],
      "stateMutability": "view",
      "type": "function"
    },
    {
      "inputs": [],
      "name": "totalTRARewards",
      "outputs": [
        {
          "internalType": "uint256",
          "name": "",
          "type": "uint256"
        }
      ],
      "stateMutability": "view",
      "type": "function"
    }
  ],
  "bytecode": "0x608060405234801561001057600080fd5b5061333b806100206000396000f3fe608060405234801561001057600080fd5b506004361061035d5760003560e01c80636e96dfd7116101d35780639a4eabc611610104578063cb197453116100a2578063ec342ad01161007c578063ec342ad014610a33578063ed4908e614610a3b578063fc4d33f914610a43578063fdd1c36f14610a4b5761035d565b8063cb197453146109f4578063e15db71014610a23578063e30c397814610a2b5761035d565b8063ac01b8a4116100de578063ac01b8a414610949578063bac6b5d314610994578063c52c0ab5146109b4578063c9f98851146109d45761035d565b80639a4eabc6146108ec578063a93104ee1461091b578063a99f90dd146109415761035d565b80637a6c0e781161017157806390cb55321161014b57806390cb55321461084257806390cead3c1461085f578063962d6bd31461088e57806399f8b3f2146108bd5761035d565b80637a6c0e7814610812578063878b807f146108325780638da5cb5b1461083a5761035d565b8063729c303c116101ad578063729c303c1461078c57806373b301fc146107ac57806376e58989146107db57806378e979251461080a5761035d565b80636e96dfd71461070857806370cbde0f1461072e57806372138b361461075d5761035d565b806334ab017d116102ad5780634f0d9f961161024b57806354c278391161022557806354c27839146106a35780635d7222b5146106ab578063616b40e3146106da5780636bd5bb9e146106e25761035d565b80634f0d9f9614610649578063542c028814610651578063547cec011461067d5761035d565b806338cd09521161028757806338cd0952146106025780633ba921df1461060a578063456271e51461061257806346092691146106415761035d565b806334ab017d146105905780633641e0831461059857806337e0f653146105dc5761035d565b80630e7e81351161031a57806326cb691a116102f457806326cb691a1461050d57806327613560146105335780632ec0a9d71461056257806332c64bff146105885761035d565b80630e7e813514610431578063184b22b8146104b05780631e009445146104de5761035d565b806308423d2614610362578063086146d2146103a55780630870d4ac146103bf57806308e71cce146103c75780630989730a146103ed57806309d55ce81461040d575b600080fd5b6103916004803603604081101561037857600080fd5b50803560ff1690602001356001600160a01b0316610a53565b604080519115158252519081900360200190f35b6103ad610a6b565b60408051918252519081900360200190f35b6103ad610a71565b6103ad600480360360408110156103dd57600080fd5b5060ff8135169060200135610ab0565b6103ad6004803603602081101561040357600080fd5b503560ff16610acd565b610415610adf565b604080516001600160a01b039092168252519081900360200190f35b6104606004803603604081101561044757600080fd5b50803560ff1690602001356001600160a01b0316610aee565b604080519a8b5260208b0199909952898901979097526060890195909552608088019390935260a087019190915260c086015260e085015261010084015261012083015251908190036101400190f35b6104dc600480360360408110156104c657600080fd5b506001600160a01b038135169060200135610b4f565b005b6103ad600480360360408110156104f457600080fd5b50803560ff1690602001356001600160a01b0316610c8d565b6104dc6004803603604081101561052357600080fd5b5060ff8135169060200135610cff565b6103ad6004803603604081101561054957600080fd5b50803560ff1690602001356001600160a01b0316610d69565b6104dc6004803603604081101561057857600080fd5b5060ff8135169060200135610d98565b6104dc610e02565b6103ad610e18565b6104dc600480360360a08110156105ae57600080fd5b508035906001600160a01b036020820135811691604081013582169160608201358116916080013516610e2e565b6103ad600480360360208110156105f257600080fd5b50356001600160a01b0316611050565b610391611096565b6103ad61109b565b6103ad6004803603604081101561062857600080fd5b50803560ff1690602001356001600160a01b03166110a1565b6103ad61112e565b6103ad611134565b6104dc6004803603604081101561066757600080fd5b506001600160a01b038135169060200135611162565b6103ad6004803603604081101561069357600080fd5b5060ff8135169060200135611298565b6104156112b5565b610391600480360360408110156106c157600080fd5b50803560ff1690602001356001600160a01b03166112c4565b6103ad6112da565b6103ad600480360360408110156106f857600080fd5b5060ff81351690602001356112fb565b6104dc6004803603602081101561071e57600080fd5b50356001600160a01b0316611318565b6103916004803603604081101561074457600080fd5b50803560ff1690602001356001600160a01b0316611414565b6103ad6004803603604081101561077357600080fd5b50803560ff1690602001356001600160a01b0316611428565b6103ad600480360360208110156107a257600080fd5b503560ff16611435565b6103ad600480360360408110156107c257600080fd5b50803560ff1690602001356001600160a01b0316611480565b610391600480360360408110156107f157600080fd5b50803560ff1690602001356001600160a01b031661150d565b6103ad6115a0565b6104dc6004803603602081101561082857600080fd5b503560ff166115a6565b6103ad61167d565b610415611688565b6103ad6004803603602081101561085857600080fd5b5035611697565b6103ad6004803603604081101561087557600080fd5b50803560ff1690602001356001600160a01b03166116a9565b6103ad600480360360408110156108a457600080fd5b50803560ff1690602001356001600160a01b0316611780565b6103ad600480360360408110156108d357600080fd5b50803560ff1690602001356001600160a01b03166117f8565b6103ad6004803603604081101561090257600080fd5b50803560ff1690602001356001600160a01b0316611861565b6103ad6004803603602081101561093157600080fd5b50356001600160a01b0316611a76565b6103ad611a83565b6109696004803603602081101561095f57600080fd5b503560ff16611a8f565b6040805195865260208601949094528484019290925260608401526080830152519081900360a00190f35b6104dc600480360360208110156109aa57600080fd5b503560ff16611abe565b6103ad600480360360208110156109ca57600080fd5b503560ff16611bd5565b6103ad600480360360208110156109ea57600080fd5b503560ff16611bf2565b6103ad60048036036040811015610a0a57600080fd5b50803560ff1690602001356001600160a01b0316611c04565b6103ad611c17565b610415611c1d565b6103ad611c2c565b610415611c38565b6104dc611c47565b610415611d2e565b60006001610a618484610c8d565b1190505b92915050565b606b5490565b600060698160015b6001811115610a8457fe5b81526020019081526020016000206000610a9c610e18565b815260200190815260200160002054905090565b606960209081526000928352604080842090915290825290205481565b60716020526000908152604090205481565b6068546001600160a01b031681565b607360205281600052604060002060205280600052604060002060009150915050806000015490806001015490806002015490806003015490806004015490806005015490806006015490806007015490806008015490806009015490508a565b60026001541415610b95576040805162461bcd60e51b815260206004820152601f6024820152600080516020612fb5833981519152604482015290519081900360640190fd5b60026001556001600160a01b038216610bdf5760405162461bcd60e51b815260040180806020018281038252603481526020018061319d6034913960400191505060405180910390fd5b80610c1b5760405162461bcd60e51b81526004018080602001828103825260288152602001806132156028913960400191505060405180910390fd5b606754421015610c72576040805162461bcd60e51b815260206004820152601d60248201527f696e7665737453543a20496e76657374206973206e6f74206f70656e21000000604482015290519081900360640190fd5b610c7a610e02565b610c85338383611d3d565b505060018055565b60008060736000856001811115610ca057fe5b6001811115610cab57fe5b81526020019081526020016000206000846001600160a01b03166001600160a01b031681526020019081526020016000209050610cf78160040154606b54611d6690919063ffffffff16565b949350505050565b60026001541415610d45576040805162461bcd60e51b815260206004820152601f6024820152600080516020612fb5833981519152604482015290519081900360640190fd5b6002600155610d52610e02565b610d5c8233611dc3565b610c858233836000611f4d565b600080610d768484611780565b90506000610d8385611435565b9050610d8f8282612200565b95945050505050565b60026001541415610dde576040805162461bcd60e51b815260206004820152601f6024820152600080516020612fb5833981519152604482015290519081900360640190fd5b6002600155610deb610e02565b610df58233611dc3565b610c858233600084611f4d565b610e0c60006115a6565b610e1660016115a6565b565b606b54600090610e29906001611d66565b905090565b600054610100900460ff1680610e475750610e4761221e565b80610e55575060005460ff16155b610e905760405162461bcd60e51b815260040180806020018281038252602e81526020018061313b602e913960400191505060405180910390fd5b600054610100900460ff16158015610ebb576000805460ff1961ff0019909116610100171660011790555b42861015610efa5760405162461bcd60e51b81526004018080602001828103825260238152602001806131f26023913960400191505060405180910390fd5b606786905560405186906000907f2f7a7a4b83c5c69bcbf5fdd52b26b219995eee3ce951f47bea37877a08a96886908290a36001606b55610f3a8561222f565b610f4384612323565b610f4c83612417565b607680546001600160a01b0319166001600160a01b03841617905560007fad843ed81c51f3253e288ab81893b95f341abc6f3805e238467be473bc3798f581905560037f169c6be1b0e6ab5de76b532e587a77340130ac65c5591db02be822dcf1dc0ed6558052670de0b6b3a76400007f8d29cc361e87370a6e9cbd2d717d07e3af7a9213892f6bee5325303067d51f9a8190557fc073f36c05b6a60b24c30a48974b549770d8fa354751fb3170c9dfd8ca536add6020527fe3965d5ccc9589032ee19b702d4c41539660d05f5feb0b544807a0d8c57c29ef5561102e61250b565b6110366125b5565b8015611048576000805461ff00191690555b505050505050565b600080607381805b600181111561106357fe5b8152602080820192909252604090810160009081206001600160a01b039096168152949091529092206007015492915050565b600190565b61271081565b60006110ad838361150d565b156110ba57506000610a65565b6000607360008560018111156110cc57fe5b60018111156110d757fe5b81526020019081526020016000206000846001600160a01b03166001600160a01b0316815260200190815260200160002090506111148484611414565b1561112457600101549050610a65565b5060009392505050565b606c5481565b600080606d8160015b600181111561114857fe5b815260208101919091526040016000206004015492915050565b600260015414156111a8576040805162461bcd60e51b815260206004820152601f6024820152600080516020612fb5833981519152604482015290519081900360640190fd5b60026001556001600160a01b0382166111f25760405162461bcd60e51b81526004018080602001828103825260348152602001806130206034913960400191505060405180910390fd5b8061122e5760405162461bcd60e51b81526004018080602001828103825260288152602001806130886028913960400191505060405180910390fd5b606754421015611285576040805162461bcd60e51b815260206004820152601d60248201527f696e766573744a543a20496e76657374206973206e6f74206f70656e21000000604482015290519081900360640190fd5b61128d610e02565b610c853383836125f7565b607260209081526000928352604080842090915290825290205481565b6074546001600160a01b031681565b60006112d08383610c8d565b6001149392505050565b60006112ee6112e7611a83565b829061261b565b9050610e296112e7611134565b606a60209081526000928352604080842090915290825290205481565b6033546001600160a01b031633146113615760405162461bcd60e51b81526004018080602001828103825260238152602001806130e46023913960400191505060405180910390fd5b6001600160a01b0381161580159061138757506034546001600160a01b03828116911614155b6113c25760405162461bcd60e51b815260040180806020018281038252604b815260200180612fd5604b913960600191505060405180910390fd5b603480546001600160a01b038381166001600160a01b0319831681179093556040519116919082907fb3d55174552271a4f1aaf36b72f50381e892171636b3fb5447fe00e995e7a37b90600090a35050565b60006114208383610c8d565b159392505050565b600080610d768484611c04565b60006069600083600181111561144757fe5b600181111561145257fe5b8152602001908152602001600020600061146a610e18565b8152602001908152602001600020549050919050565b600061148c838361150d565b1561149957506000610a65565b6000607360008560018111156114ab57fe5b60018111156114b657fe5b81526020019081526020016000206000846001600160a01b03166001600160a01b0316815260200190815260200160002090506114f38484611414565b1561150357600301549050610a65565b61111484846112c4565b6000806073600085600181111561152057fe5b600181111561152b57fe5b8152602080820192909252604090810160009081206001600160a01b0387168252909252812060098101549092509060719086600181111561156957fe5b600181111561157457fe5b8152602001908152602001600020548110156115935760019250611598565b600092505b505092915050565b60675481565b336115b18282612675565b6000607360008460018111156115c357fe5b60018111156115ce57fe5b8152602080820192909252604090810160009081206001600160a01b038616825290925290206008810154909150801561167757607554604080516340c10f1960e01b81526001600160a01b03868116600483015260248201859052915191909216916340c10f1991604480830192600092919082900301818387803b15801561165757600080fd5b505af115801561166b573d6000803e3d6000fd5b50506000600885015550505b50505050565b600060698180610a79565b6033546001600160a01b031681565b606e6020526000908152604090205481565b60006116b5838361150d565b156116c257506000610a65565b6000607360008560018111156116d457fe5b60018111156116df57fe5b81526020019081526020016000206000846001600160a01b03166001600160a01b03168152602001908152602001600020905061171c8484611414565b1561172957549050610a65565b61173384846112c4565b1561175057600381015481546117489161261b565b915050610a65565b61175a8484610a53565b1561112457600181015460038201548254611748929161177a919061261b565b9061261b565b600061178c838361150d565b1561179957506000610a65565b6000607360008560018111156117ab57fe5b60018111156117b657fe5b8152602080820192909252604090810160009081206001600160a01b03871682529092529020805460038201546001830154929350610cf79261177a9161261b565b6000806073600085600181111561180b57fe5b600181111561181657fe5b8152602080820192909252604090810160009081206001600160a01b0387168252909252812091506118488585611861565b9050610d8f82600801548261261b90919063ffffffff16565b6000806073600085600181111561187457fe5b600181111561187f57fe5b81526020019081526020016000206000846001600160a01b03166001600160a01b0316815260200190815260200160002090506118ba612f3e565b6009820154604082015260048201546101808201526118d985856110a1565b6101608201526118e98585611480565b6101008201526118f985856116a9565b60e0820152610180810151158015611913575060e0810151155b80156119225750610100810151155b80156119315750610160810151155b1561194157600092505050610a65565b61194b858561150d565b15611996576072600086600181111561196057fe5b600181111561196b57fe5b81526020808201929092526040908101600090812084830151825290925290205460808201526119ee565b606a60008660018111156119a657fe5b60018111156119b157fe5b815260200190815260200160002060006119d76001606b54611d6690919063ffffffff16565b815260208101919091526040016000205460808201525b60e0810151156115985760028201546060820152606a6000866001811115611a1257fe5b6001811115611a1d57fe5b8152602080820192909252604090810160009081206060850151825290925290205460a082018190526080820151611a6491611a599190611d66565b60e083015190612200565b60c08201819052610d8f90849061261b565b6000806073816001611058565b600080606d818061113d565b606d60205260009081526040902080546001820154600283015460038401546004909401549293919290919085565b60026001541415611b04576040805162461bcd60e51b815260206004820152601f6024820152600080516020612fb5833981519152604482015290519081900360640190fd5b6002600155611b12816115a6565b600060736000836001811115611b2457fe5b6001811115611b2f57fe5b8152602080820192909252604090810160009081203382529092529020606b54600582015491925014801590611b765750606b54611b6e906001611d66565b816004015414155b611bc7576040805162461bcd60e51b815260206004820152601760248201527f657869743a20486173206c6f636b656420736861726521000000000000000000604482015290519081900360640190fd5b610c85828260000154610cff565b600060706000836001811115611be757fe5b600181111561146a57fe5b60706020526000908152604090205481565b6000611c1083836116a9565b9392505050565b606f5481565b6034546001600160a01b031681565b670de0b6b3a764000081565b6075546001600160a01b031681565b6034546001600160a01b03163314611c905760405162461bcd60e51b81526004018080602001828103825260258152602001806132616025913960400191505060405180910390fd5b60338054603480546001600160a01b038082166001600160a01b031980861682179687905590921690925560405192821693909291169083907f70aea8d848e8a90fb7661b227dc522eb6395c3dac71b63cb59edd5c9899b236490600090a36034546040516001600160a01b03918216918316907fb3d55174552271a4f1aaf36b72f50381e892171636b3fb5447fe00e995e7a37b90600090a35050565b6076546001600160a01b031681565b606854611d55906001600160a01b0316843084612758565b611d61600083836127b2565b505050565b600082821115611dbd576040805162461bcd60e51b815260206004820152601e60248201527f536166654d6174683a207375627472616374696f6e206f766572666c6f770000604482015290519081900360640190fd5b50900390565b600060736000846001811115611dd557fe5b6001811115611de057fe5b8152602080820192909252604090810160009081206001600160a01b038616825290925281209150606d81856001811115611e1757fe5b6001811115611e2257fe5b81526020019081526020016000209050600060716000866001811115611e4457fe5b6001811115611e4f57fe5b81526020019081526020016000205490508083600901541015611ec75760068301546004830154611e7f91611d66565b6004830155825460038085015490840154611ea59291611e9f9190611d66565b90611d66565b6003808401919091556000600685018190559084018190558355600983018190555b606b54611ed5906002611d66565b836004015411611f0b57600183015460038401548454611efa929161177a919061261b565b835560006003840181905560018401555b606b54611f19906001611d66565b83600401541415611f465760038301548354611f349161261b565b83556001830180546003850155600090555b5050505050565b811580611f58575080155b611f935760405162461bcd60e51b81526004018080602001828103825260568152602001806132b06056913960600191505060405180910390fd5b6000806000606d6000886001811115611fa857fe5b6001811115611fb357fe5b81526020019081526020016000209050600060696000896001811115611fd557fe5b6001811115611fe057fe5b815260200190815260200160002060006120066001606b54611d6690919063ffffffff16565b815260200190815260200160002054905060008611156120345785925061202d8382612200565b9350612044565b61203e8582612ac9565b92508493505b60006120508989611428565b9050808511156120915760405162461bcd60e51b815260040180806020018281038252602481526020018061323d6024913960400191505060405180910390fd5b6000607360008b60018111156120a357fe5b60018111156120ae57fe5b8152602080820192909252604090810160009081206001600160a01b038d168252909252812091508a60018111156120e257fe5b1415612104576068546120ff906001600160a01b03168a88612aef565b61212f565b60018a600181111561211257fe5b141561212f5760745461212f906001600160a01b03168a88612aef565b600284015461213e9087611d66565b600285015560048401546121529087611d66565b600485015560038401546121669086611d66565b6003850155600781015461217a9087611d66565b6007820155805461218b9086611d66565b81600001819055507f7dcc0d6aa29c70dffbc53fd99c283b7a07e2a0778400e897e7a32a7b20d80d658a8a8789604051808560018111156121c857fe5b81526001600160a01b03909416602085015250604080840192909252606083015251908190036080019150a150505050505050505050565b6000611c10670de0b6b3a76400006122188585612b41565b90612b9a565b600061222930612c01565b15905090565b806001600160a01b031663d89b1ce46040518163ffffffff1660e01b8152600401602060405180830381600087803b15801561226a57600080fd5b505af115801561227e573d6000803e3d6000fd5b505050506040513d602081101561229457600080fd5b50516122d15760405162461bcd60e51b81526004018080602001828103825260348152602001806130546034913960400191505060405180910390fd5b606880546001600160a01b038381166001600160a01b0319831681179093556040519116919082907fec6ddc4b53d1b48606de8d1df0da2a99e890d2c4f444679e4ae581df1f837d4e90600090a35050565b806001600160a01b03166319370c366040518163ffffffff1660e01b8152600401602060405180830381600087803b15801561235e57600080fd5b505af1158015612372573d6000803e3d6000fd5b505050506040513d602081101561238857600080fd5b50516123c55760405162461bcd60e51b81526004018080602001828103825260348152602001806131696034913960400191505060405180910390fd5b607480546001600160a01b038381166001600160a01b0319831681179093556040519116919082907f7d1ccafc7e938c6f8c8e6aea47a4f39ca6efbed7aa87e071bfbd0420a907a0d590600090a35050565b806001600160a01b0316636abddb166040518163ffffffff1660e01b8152600401602060405180830381600087803b15801561245257600080fd5b505af1158015612466573d6000803e3d6000fd5b505050506040513d602081101561247c57600080fd5b50516124b95760405162461bcd60e51b81526004018080602001828103825260348152602001806131076034913960400191505060405180910390fd5b607580546001600160a01b038381166001600160a01b0319831681179093556040519116919082907f9cbbc7e30f7ad2f45a57b5f3b0b36836403b40b3613e396b7df129644093195590600090a35050565b600054610100900460ff1680612524575061252461221e565b80612532575060005460ff16155b61256d5760405162461bcd60e51b815260040180806020018281038252602e81526020018061313b602e913960400191505060405180910390fd5b600054610100900460ff16158015612598576000805460ff1961ff0019909116610100171660011790555b6125a0612c07565b80156125b2576000805461ff00191690555b50565b603380546001600160a01b031916339081179091556040516000907f70aea8d848e8a90fb7661b227dc522eb6395c3dac71b63cb59edd5c9899b2364908290a3565b60745461260f906001600160a01b0316843084612758565b611d61600183836127b2565b600082820183811015611c10576040805162461bcd60e51b815260206004820152601b60248201527f536166654d6174683a206164646974696f6e206f766572666c6f770000000000604482015290519081900360640190fd5b60006073600084600181111561268757fe5b600181111561269257fe5b8152602080820192909252604090810160009081206001600160a01b0386168252909252812091506126c48484611861565b905080156126e15760088201546126db908261261b565b60088301555b606b546126ef906001611d66565b82600201819055507fb817860eeeb9bd88a77891bd37c3950a48ac88895c595e441fb78da5184a082b8484836040518084600181111561272b57fe5b8152602001836001600160a01b03168152602001828152602001935050505060405180910390a150505050565b604080516001600160a01b0380861660248301528416604482015260648082018490528251808303909101815260849091019091526020810180516001600160e01b03166323b872dd60e01b179052611677908590612cac565b600081116127f15760405162461bcd60e51b81526004018080602001828103825260348152602001806130b06034913960400191505060405180910390fd5b60006073600085600181111561280357fe5b600181111561280e57fe5b8152602080820192909252604090810160009081206001600160a01b038716825290925281209150606d8186600181111561284557fe5b600181111561285057fe5b8152602001908152602001600020905060006071600087600181111561287257fe5b600181111561287d57fe5b8152602001908152602001600020549050600061289987611435565b905060006128a78683612d5d565b905082856009015410156128d65760006006860181905560038601819055600186018190558555600985018390555b83546128e2908761261b565b845560048401546128f3908761261b565b60048501556003840154612907908261261b565b6003850155600785015461291b908761261b565b85600701819055507f7878ea81268d52cedeedac0e904a9620a40ca345ee346beb765a9ee915c282f4883389896040518085600181111561295857fe5b8152602001846001600160a01b03168152602001836001600160a01b0316815260200182815260200194505050505060405180910390a160048501546129e6576001808601829055606b54600487018190556129b39161261b565b60058601556006850186905560098501839055606b546129d4906001611d66565b85600201819055505050505050611d61565b606b5485600401541415612a2a576001850154612a03908261261b565b60018601556006850154612a17908761261b565b6006860155606b546129d4906001611d66565b606b5485600401541015612abf57606b54612a46906001611d66565b85600401541415612a725760038501548554612a619161261b565b855560018501546003860155612a97565b600185015460038601548654612a8d929161177a919061261b565b8555600060038601555b6001808601829055606b5460048701819055612ab29161261b565b6005860155600685018690555b5050505050505050565b6000611c1082612218612add826001611d66565b61177a87670de0b6b3a7640000612b41565b604080516001600160a01b038416602482015260448082018490528251808303909101815260649091019091526020810180516001600160e01b031663a9059cbb60e01b179052611d61908490612cac565b600082612b5057506000610a65565b82820282848281612b5d57fe5b0414611c105760405162461bcd60e51b81526004018080602001828103825260218152602001806131d16021913960400191505060405180910390fd5b6000808211612bf0576040805162461bcd60e51b815260206004820152601a60248201527f536166654d6174683a206469766973696f6e206279207a65726f000000000000604482015290519081900360640190fd5b818381612bf957fe5b049392505050565b3b151590565b600054610100900460ff1680612c205750612c2061221e565b80612c2e575060005460ff16155b612c695760405162461bcd60e51b815260040180806020018281038252602e81526020018061313b602e913960400191505060405180910390fd5b600054610100900460ff16158015612c94576000805460ff1961ff0019909116610100171660011790555b6001805580156125b2576000805461ff001916905550565b6000612d01826040518060400160405280602081526020017f5361666545524332303a206c6f772d6c6576656c2063616c6c206661696c6564815250856001600160a01b0316612d759092919063ffffffff16565b805190915015611d6157808060200190516020811015612d2057600080fd5b5051611d615760405162461bcd60e51b815260040180806020018281038252602a815260200180613286602a913960400191505060405180910390fd5b6000611c108261221885670de0b6b3a7640000612b41565b6060610cf7848460008585612d8985612c01565b612dda576040805162461bcd60e51b815260206004820152601d60248201527f416464726573733a2063616c6c20746f206e6f6e2d636f6e7472616374000000604482015290519081900360640190fd5b600080866001600160a01b031685876040518082805190602001908083835b60208310612e185780518252601f199092019160209182019101612df9565b6001836020036101000a03801982511681845116808217855250505050505090500191505060006040518083038185875af1925050503d8060008114612e7a576040519150601f19603f3d011682016040523d82523d6000602084013e612e7f565b606091505b5091509150612e8f828286612e9a565b979650505050505050565b60608315612ea9575081611c10565b825115612eb95782518084602001fd5b8160405162461bcd60e51b81526004018080602001828103825283818151815260200191508051906020019080838360005b83811015612f03578181015183820152602001612eeb565b50505050905090810190601f168015612f305780820380516001836020036101000a031916815260200191505b509250505060405180910390fd5b604051806101e00160405280600081526020016000815260200160008152602001600081526020016000815260200160008152602001600081526020016000815260200160008152602001600081526020016000815260200160008152602001600081526020016000815260200160008152509056fe5265656e7472616e637947756172643a207265656e7472616e742063616c6c005f73657450656e64696e674f776e65723a204e6577206f77656e722063616e206e6f74206265207a65726f206164647265737320616e64206f776e657220686173206265656e2073657421696e766573744a543a20526563697069656e74206163636f756e742063616e206e6f74206265207a65726f2061646472657373215f73657453656e696f72546f6b656e3a2054686973206973206e6f7420612073656e696f7220746f6b656e206164647265737321696e766573744a543a20496e7665737420616d6f756e742063616e206e6f74206265207a65726f215f757064617465536861726544657461696c3a20696e76657374416d6f756e74206d7573742067726561746572207468616e20306f6e6c794f776e65723a2063616c6c6572206973206e6f7420746865206f776e6572215f736574536b7972696d546f6b656e3a2054686973206973206e6f74206120536b7972696d20746f6b656e206164647265737321496e697469616c697a61626c653a20636f6e747261637420697320616c726561647920696e697469616c697a65645f7365744a756e696f72546f6b656e3a2054686973206973206e6f742061206a756e696f7220746f6b656e206164647265737321696e7665737453543a20526563697069656e74206163636f756e742063616e206e6f74206265207a65726f206164647265737321536166654d6174683a206d756c7469706c69636174696f6e206f766572666c6f77696e697469616c697a653a2053746172742074696d6520686173206578706972656421696e7665737453543a20496e7665737420616d6f756e742063616e206e6f74206265207a65726f215f72656465656d496e7465726e616c3a20546f6f206d75636820746f2072656465656d215f6163636570744f776e65723a204f6e6c7920666f722070656e64696e67206f776e6572215361666545524332303a204552433230206f7065726174696f6e20646964206e6f7420737563636565645f72656465656d496e7465726e616c3a204f6e65206f662072656465656d5368617265546f6b656e416d6f756e74206f722072656465656d556e6465726c79696e67416d6f756e74206d757374206265207a65726f21a2646970667358221220933bcddcc5c4aa2f53cf3d358d757dd5f241c960a37507f9b0a7a77837e92d9f64736f6c63430007060033",
  "linkReferences": {},
  "deployedLinkReferences": {}
}